{
  "address": "0x7F7f856cD1B2B36a4E4bFf3a1e89Df88E919F577",
  "abi": [
    {
      "inputs": [
        {
          "internalType": "address",
          "name": "streamEns",
          "type": "address"
        }
      ],
      "stateMutability": "nonpayable",
      "type": "constructor"
    },
    {
      "anonymous": false,
      "inputs": [
        {
          "indexed": true,
          "internalType": "address",
          "name": "previousOwner",
          "type": "address"
        },
        {
          "indexed": true,
          "internalType": "address",
          "name": "newOwner",
          "type": "address"
        }
      ],
      "name": "OwnershipTransferred",
      "type": "event"
    },
    {
      "inputs": [
        {
          "internalType": "bytes",
          "name": "input",
          "type": "bytes"
        }
      ],
      "name": "fetch",
      "outputs": [
        {
          "internalType": "string",
          "name": "",
          "type": "string"
        }
      ],
      "stateMutability": "view",
      "type": "function"
    },
    {
      "inputs": [],
      "name": "owner",
      "outputs": [
        {
          "internalType": "address",
          "name": "",
          "type": "address"
        }
      ],
      "stateMutability": "view",
      "type": "function"
    },
    {
      "inputs": [],
      "name": "renounceOwnership",
      "outputs": [],
      "stateMutability": "nonpayable",
      "type": "function"
    },
    {
      "inputs": [
        {
          "internalType": "address",
          "name": "newOwner",
          "type": "address"
        }
      ],
      "name": "transferOwnership",
      "outputs": [],
      "stateMutability": "nonpayable",
      "type": "function"
    }
  ],
  "transactionHash": "0x117aff3da458ce9518278232c201a86dfa041bb2dfa6b20df05575929b5d7d4a",
  "args": [
    "0x9b433D1eC7C0D7f637BF3460Fa416841C43Fc791"
  ],
  "numDeployments": 1,
  "solcInputHash": "9ff91e743f89171638eb63f409bd4bb1",
  "bytecode": "0x60e060405273c18360217d8f7ab5e7c516566761ea12ce7f9d72608052739c8ff314c9bc7f6e59a9d9225fb22946427edc0360a052734b10701bfd7bfedc47d50562b76b436fbb5bdb3b60c05234801561005857600080fd5b50604051610f72380380610f72833981016040819052610077916100f5565b610080336100a5565b600180546001600160a01b0319166001600160a01b0392909216919091179055610125565b600080546001600160a01b038381166001600160a01b0319831681178455604051919092169283917f8be0079c531659141344cd1fd0a4f28419497f9722a3daafe3b4186f6b6457e09190a35050565b60006020828403121561010757600080fd5b81516001600160a01b038116811461011e57600080fd5b9392505050565b60805160a05160c051610e1e6101546000396000610341015260006102b1015260006102210152610e1e6000f3fe608060405234801561001057600080fd5b506004361061004c5760003560e01c8063715018a6146100515780638da5cb5b1461005b578063f2fde38b1461007b578063f6559a6b1461008e575b600080fd5b6100596100ae565b005b6000546040516001600160a01b0390911681526020015b60405180910390f35b61005961008936600461091e565b610119565b6100a161009c3660046109b1565b6101e4565b6040516100729190610a61565b6000546001600160a01b0316331461010d5760405162461bcd60e51b815260206004820181905260248201527f4f776e61626c653a2063616c6c6572206973206e6f7420746865206f776e657260448201526064015b60405180910390fd5b610117600061047d565b565b6000546001600160a01b031633146101735760405162461bcd60e51b815260206004820181905260248201527f4f776e61626c653a2063616c6c6572206973206e6f7420746865206f776e65726044820152606401610104565b6001600160a01b0381166101d85760405162461bcd60e51b815260206004820152602660248201527f4f776e61626c653a206e6577206f776e657220697320746865207a65726f206160448201526564647265737360d01b6064820152608401610104565b6101e18161047d565b50565b60606000828060200190518101906101fc9190610a94565b6040516370a0823160e01b81526001600160a01b0380831660048301529192506000917f000000000000000000000000000000000000000000000000000000000000000016906370a0823190602401602060405180830381865afa158015610268573d6000803e3d6000fd5b505050506040513d601f19601f8201168201806040525081019061028c9190610ab1565b6040516370a0823160e01b81526001600160a01b0384811660048301529192506000917f000000000000000000000000000000000000000000000000000000000000000016906370a0823190602401602060405180830381865afa1580156102f8573d6000803e3d6000fd5b505050506040513d601f19601f8201168201806040525081019061031c9190610ab1565b6040516370a0823160e01b81526001600160a01b0385811660048301529192506000917f000000000000000000000000000000000000000000000000000000000000000016906370a0823190602401602060405180830381865afa158015610388573d6000803e3d6000fd5b505050506040513d601f19601f820116820180604052508101906103ac9190610ab1565b90506103b7846104cd565b6103eb6040518060400160405280600a815260200169656e7342616c616e636560b01b8152506103e6866104f1565b6105f2565b61041c6040518060400160405280600c81526020016b6e6f756e7342616c616e636560a01b8152506103e6866104f1565b6104506040518060400160405280600f81526020016e6c696c4e6f756e7342616c616e636560881b8152506103e6866104f1565b6040516020016104639493929190610aca565b604051602081830303815290604052945050505050919050565b600080546001600160a01b038381166001600160a01b0319831681178455604051919092169283917f8be0079c531659141344cd1fd0a4f28419497f9722a3daafe3b4186f6b6457e09190a35050565b60606000806104db8461061e565b915091506104e9828261084e565b949350505050565b6060816000036105185750506040805180820190915260018152600360fc1b602082015290565b8160005b8115610542578061052c81610b4f565b915061053b9050600a83610b7e565b915061051c565b60008167ffffffffffffffff81111561055d5761055d610942565b6040519080825280601f01601f191660200182016040528015610587576020820181803683370190505b5090505b84156104e95761059c600183610b92565b91506105a9600a86610ba9565b6105b4906030610bbd565b60f81b8183815181106105c9576105c9610bd5565b60200101906001600160f81b031916908160001a9053506105eb600a86610b7e565b945061058b565b60608282604051602001610607929190610beb565b604051602081830303815290604052905092915050565b6001546040516302ec2f6d60e11b81526001600160a01b038381166004830152606092839291169060009082906305d85eda90602401602060405180830381865afa158015610671573d6000803e3d6000fd5b505050506040513d601f19601f820116820180604052508101906106959190610ab1565b905060008167ffffffffffffffff8111156106b2576106b2610942565b6040519080825280602002602001820160405280156106e557816020015b60608152602001906001900390816106d05790505b50905060008267ffffffffffffffff81111561070357610703610942565b60405190808252806020026020018201604052801561073657816020015b60608152602001906001900390816107215790505b50604051631c13359160e11b81526001600160a01b0389811660048301529192506000918291908716906338266b2290602401600060405180830381865afa158015610786573d6000803e3d6000fd5b505050506040513d6000823e601f3d908101601f191682016040526107ae9190810190610d49565b9150915060005b8581101561083e578281815181106107cf576107cf610bd5565b60200260200101518582815181106107e9576107e9610bd5565b602002602001018190525081818151811061080657610806610bd5565b602002602001015184828151811061082057610820610bd5565b6020026020010181905250808061083690610b4f565b9150506107b5565b5092989197509095505050505050565b60408051602081019091526000808252606091905b845181101561090157600084828151811061088057610880610bd5565b60200260200101515111156108ef57816108cc8683815181106108a5576108a5610bd5565b60200260200101518684815181106108bf576108bf610bd5565b60200260200101516105f2565b6040516020016108dd929190610dad565b60405160208183030381529060405291505b806108f981610b4f565b915050610863565b509392505050565b6001600160a01b03811681146101e157600080fd5b60006020828403121561093057600080fd5b813561093b81610909565b9392505050565b634e487b7160e01b600052604160045260246000fd5b604051601f8201601f1916810167ffffffffffffffff8111828210171561098157610981610942565b604052919050565b600067ffffffffffffffff8211156109a3576109a3610942565b50601f01601f191660200190565b6000602082840312156109c357600080fd5b813567ffffffffffffffff8111156109da57600080fd5b8201601f810184136109eb57600080fd5b80356109fe6109f982610989565b610958565b818152856020838501011115610a1357600080fd5b81602084016020830137600091810160200191909152949350505050565b60005b83811015610a4c578181015183820152602001610a34565b83811115610a5b576000848401525b50505050565b6020815260008251806020840152610a80816040850160208701610a31565b601f01601f19169190910160400192915050565b600060208284031215610aa657600080fd5b815161093b81610909565b600060208284031215610ac357600080fd5b5051919050565b60008551610adc818460208a01610a31565b855190830190610af0818360208a01610a31565b600b60fa1b91018181528551909190610b10816001850160208a01610a31565b60019201918201528351610b2b816002840160208801610a31565b016002019695505050505050565b634e487b7160e01b600052601160045260246000fd5b600060018201610b6157610b61610b39565b5060010190565b634e487b7160e01b600052601260045260246000fd5b600082610b8d57610b8d610b68565b500490565b600082821015610ba457610ba4610b39565b500390565b600082610bb857610bb8610b68565b500690565b60008219821115610bd057610bd0610b39565b500190565b634e487b7160e01b600052603260045260246000fd5b6e3d913a3930b4ba2fba3cb832911d1160891b81528251600090610c1681600f850160208801610a31565b61088b60f21b600f9184019182015267113b30b63ab2911d60c11b6011820152601160f91b60198201528351610c5381601a840160208801610a31565b61227d60f01b601a9290910191820152601c01949350505050565b600082601f830112610c7f57600080fd5b8151602067ffffffffffffffff80831115610c9c57610c9c610942565b8260051b610cab838201610958565b9384528581018301938381019088861115610cc557600080fd5b84880192505b85831015610d3d57825184811115610ce35760008081fd5b8801603f81018a13610cf55760008081fd5b858101516040610d076109f983610989565b8281528c82848601011115610d1c5760008081fd5b610d2b838a8301848701610a31565b85525050509184019190840190610ccb565b98975050505050505050565b60008060408385031215610d5c57600080fd5b825167ffffffffffffffff80821115610d7457600080fd5b610d8086838701610c6e565b93506020850151915080821115610d9657600080fd5b50610da385828601610c6e565b9150509250929050565b60008351610dbf818460208801610a31565b835190830190610dd3818360208801610a31565b600b60fa1b910190815260010194935050505056fea264697066735822122066a912a7e33a4343b4f0102ff9e0a23ae2967ef92b9e45235a65c3c9cf5e9b9664736f6c634300080f0033",
  "devdoc": {
    "author": "Kames Geraghty",
    "kind": "dev",
    "methods": {
      "owner()": {
        "details": "Returns the address of the current owner."
      },
      "renounceOwnership()": {
        "details": "Leaves the contract without owner. It will not be possible to call `onlyOwner` functions anymore. Can only be called by the current owner. NOTE: Renouncing ownership will leave the contract without an owner, thereby removing any functionality that is only available to the owner."
      },
      "transferOwnership(address)": {
        "details": "Transfers ownership of the contract to a new account (`newOwner`). Can only be called by the current owner."
      }
    },
    "title": "ENounsTraits",
    "version": 1
  },
  "userdoc": {
    "kind": "user",
    "methods": {},
    "version": 1
  },
  "storageLayout": {
    "storage": [
      {
        "astId": 7,
        "contract": "contracts/ENounsTraits.sol:ENounsTraits",
        "label": "_owner",
        "offset": 0,
        "slot": "0",
        "type": "t_address"
      },
      {
        "astId": 2680,
        "contract": "contracts/ENounsTraits.sol:ENounsTraits",
        "label": "_streamEns",
        "offset": 0,
        "slot": "1",
        "type": "t_address"
      }
    ],
    "types": {
      "t_address": {
        "encoding": "inplace",
        "label": "address",
        "numberOfBytes": "20"
      }
    }
  }
}