{
  "address": "0x0Ac201B9Da85D0eD10Cfada3cb2B7B4F701db970",
  "abi": [
    {
      "inputs": [
        {
          "internalType": "string",
          "name": "name",
          "type": "string"
        },
        {
          "internalType": "string",
          "name": "symbol",
          "type": "string"
        },
        {
          "components": [
            {
              "internalType": "string",
              "name": "name",
              "type": "string"
            },
            {
              "internalType": "string",
              "name": "description",
              "type": "string"
            },
            {
              "internalType": "string",
              "name": "image",
              "type": "string"
            },
            {
              "internalType": "string",
              "name": "externalLink",
              "type": "string"
            },
            {
              "internalType": "string",
              "name": "sellerFeeBasisPoints",
              "type": "string"
            },
            {
              "internalType": "string",
              "name": "feeRecipient",
              "type": "string"
            }
          ],
          "internalType": "struct ENounders.ContractURI",
          "name": "contractURI",
          "type": "tuple"
        },
        {
          "internalType": "string",
          "name": "imageURI",
          "type": "string"
        },
        {
          "internalType": "address",
          "name": "_owner",
          "type": "address"
        }
      ],
      "stateMutability": "nonpayable",
      "type": "constructor"
    },
    {
      "anonymous": false,
      "inputs": [
        {
          "indexed": true,
          "internalType": "address",
          "name": "owner",
          "type": "address"
        },
        {
          "indexed": true,
          "internalType": "address",
          "name": "approved",
          "type": "address"
        },
        {
          "indexed": true,
          "internalType": "uint256",
          "name": "tokenId",
          "type": "uint256"
        }
      ],
      "name": "Approval",
      "type": "event"
    },
    {
      "anonymous": false,
      "inputs": [
        {
          "indexed": true,
          "internalType": "address",
          "name": "owner",
          "type": "address"
        },
        {
          "indexed": true,
          "internalType": "address",
          "name": "operator",
          "type": "address"
        },
        {
          "indexed": false,
          "internalType": "bool",
          "name": "approved",
          "type": "bool"
        }
      ],
      "name": "ApprovalForAll",
      "type": "event"
    },
    {
      "anonymous": false,
      "inputs": [
        {
          "indexed": true,
          "internalType": "address",
          "name": "previousOwner",
          "type": "address"
        },
        {
          "indexed": true,
          "internalType": "address",
          "name": "newOwner",
          "type": "address"
        }
      ],
      "name": "OwnershipTransferred",
      "type": "event"
    },
    {
      "anonymous": false,
      "inputs": [
        {
          "indexed": true,
          "internalType": "address",
          "name": "from",
          "type": "address"
        },
        {
          "indexed": true,
          "internalType": "address",
          "name": "to",
          "type": "address"
        },
        {
          "indexed": true,
          "internalType": "uint256",
          "name": "tokenId",
          "type": "uint256"
        }
      ],
      "name": "Transfer",
      "type": "event"
    },
    {
      "inputs": [
        {
          "internalType": "address",
          "name": "to",
          "type": "address"
        },
        {
          "internalType": "uint256",
          "name": "tokenId",
          "type": "uint256"
        }
      ],
      "name": "approve",
      "outputs": [],
      "stateMutability": "nonpayable",
      "type": "function"
    },
    {
      "inputs": [
        {
          "internalType": "address",
          "name": "owner",
          "type": "address"
        }
      ],
      "name": "balanceOf",
      "outputs": [
        {
          "internalType": "uint256",
          "name": "",
          "type": "uint256"
        }
      ],
      "stateMutability": "view",
      "type": "function"
    },
    {
      "inputs": [],
      "name": "contractURI",
      "outputs": [
        {
          "internalType": "string",
          "name": "uri",
          "type": "string"
        }
      ],
      "stateMutability": "view",
      "type": "function"
    },
    {
      "inputs": [
        {
          "internalType": "uint256",
          "name": "tokenId",
          "type": "uint256"
        }
      ],
      "name": "getApproved",
      "outputs": [
        {
          "internalType": "address",
          "name": "",
          "type": "address"
        }
      ],
      "stateMutability": "view",
      "type": "function"
    },
    {
      "inputs": [
        {
          "internalType": "address",
          "name": "owner",
          "type": "address"
        },
        {
          "internalType": "address",
          "name": "operator",
          "type": "address"
        }
      ],
      "name": "isApprovedForAll",
      "outputs": [
        {
          "internalType": "bool",
          "name": "",
          "type": "bool"
        }
      ],
      "stateMutability": "view",
      "type": "function"
    },
    {
      "inputs": [],
      "name": "name",
      "outputs": [
        {
          "internalType": "string",
          "name": "",
          "type": "string"
        }
      ],
      "stateMutability": "view",
      "type": "function"
    },
    {
      "inputs": [],
      "name": "owner",
      "outputs": [
        {
          "internalType": "address",
          "name": "",
          "type": "address"
        }
      ],
      "stateMutability": "view",
      "type": "function"
    },
    {
      "inputs": [
        {
          "internalType": "uint256",
          "name": "tokenId",
          "type": "uint256"
        }
      ],
      "name": "ownerOf",
      "outputs": [
        {
          "internalType": "address",
          "name": "",
          "type": "address"
        }
      ],
      "stateMutability": "view",
      "type": "function"
    },
    {
      "inputs": [],
      "name": "release",
      "outputs": [],
      "stateMutability": "nonpayable",
      "type": "function"
    },
    {
      "inputs": [],
      "name": "renounceOwnership",
      "outputs": [],
      "stateMutability": "nonpayable",
      "type": "function"
    },
    {
      "inputs": [
        {
          "internalType": "address",
          "name": "from",
          "type": "address"
        },
        {
          "internalType": "address",
          "name": "to",
          "type": "address"
        },
        {
          "internalType": "uint256",
          "name": "tokenId",
          "type": "uint256"
        }
      ],
      "name": "safeTransferFrom",
      "outputs": [],
      "stateMutability": "nonpayable",
      "type": "function"
    },
    {
      "inputs": [
        {
          "internalType": "address",
          "name": "from",
          "type": "address"
        },
        {
          "internalType": "address",
          "name": "to",
          "type": "address"
        },
        {
          "internalType": "uint256",
          "name": "tokenId",
          "type": "uint256"
        },
        {
          "internalType": "bytes",
          "name": "_data",
          "type": "bytes"
        }
      ],
      "name": "safeTransferFrom",
      "outputs": [],
      "stateMutability": "nonpayable",
      "type": "function"
    },
    {
      "inputs": [
        {
          "internalType": "address",
          "name": "operator",
          "type": "address"
        },
        {
          "internalType": "bool",
          "name": "approved",
          "type": "bool"
        }
      ],
      "name": "setApprovalForAll",
      "outputs": [],
      "stateMutability": "nonpayable",
      "type": "function"
    },
    {
      "inputs": [
        {
          "components": [
            {
              "internalType": "string",
              "name": "name",
              "type": "string"
            },
            {
              "internalType": "string",
              "name": "description",
              "type": "string"
            },
            {
              "internalType": "string",
              "name": "image",
              "type": "string"
            },
            {
              "internalType": "string",
              "name": "externalLink",
              "type": "string"
            },
            {
              "internalType": "string",
              "name": "sellerFeeBasisPoints",
              "type": "string"
            },
            {
              "internalType": "string",
              "name": "feeRecipient",
              "type": "string"
            }
          ],
          "internalType": "struct ENounders.ContractURI",
          "name": "contractURI",
          "type": "tuple"
        }
      ],
      "name": "setContractURI",
      "outputs": [],
      "stateMutability": "nonpayable",
      "type": "function"
    },
    {
      "inputs": [
        {
          "internalType": "string",
          "name": "imageURI",
          "type": "string"
        }
      ],
      "name": "setImageURI",
      "outputs": [],
      "stateMutability": "nonpayable",
      "type": "function"
    },
    {
      "inputs": [
        {
          "internalType": "bytes4",
          "name": "interfaceId",
          "type": "bytes4"
        }
      ],
      "name": "supportsInterface",
      "outputs": [
        {
          "internalType": "bool",
          "name": "",
          "type": "bool"
        }
      ],
      "stateMutability": "view",
      "type": "function"
    },
    {
      "inputs": [],
      "name": "symbol",
      "outputs": [
        {
          "internalType": "string",
          "name": "",
          "type": "string"
        }
      ],
      "stateMutability": "view",
      "type": "function"
    },
    {
      "inputs": [
        {
          "internalType": "uint256",
          "name": "tokenId",
          "type": "uint256"
        }
      ],
      "name": "tokenURI",
      "outputs": [
        {
          "internalType": "string",
          "name": "uri",
          "type": "string"
        }
      ],
      "stateMutability": "view",
      "type": "function"
    },
    {
      "inputs": [
        {
          "internalType": "address",
          "name": "from",
          "type": "address"
        },
        {
          "internalType": "address",
          "name": "to",
          "type": "address"
        },
        {
          "internalType": "uint256",
          "name": "tokenId",
          "type": "uint256"
        }
      ],
      "name": "transferFrom",
      "outputs": [],
      "stateMutability": "nonpayable",
      "type": "function"
    },
    {
      "inputs": [
        {
          "internalType": "address",
          "name": "newOwner",
          "type": "address"
        }
      ],
      "name": "transferOwnership",
      "outputs": [],
      "stateMutability": "nonpayable",
      "type": "function"
    }
  ],
  "transactionHash": "0x642a98062fa0dedff21a8bdbaa6c221c0c2cca3c1c3d9fe90dd96a62e252fd0f",
  "args": [
    "Founding eNouners",
    "eNounders",
    {
      "name": "The Early Nounders",
      "description": "Limited Edition 1/1 Founding eNouners Collectable.",
      "image": "https://ipfs.io/ipfs/QmcFLwidGpXh2vX5d4Vr59wQfJqhj5iwR1icxV6q9m2ZJ1",
      "externalLink": "https://enouns.art",
      "sellerFeeBasisPoints": "0",
      "feeRecipient": "0x0000000000000000000000000000000000000000"
    },
    "https://ipfs.io/ipfs/QmZutNBNqkK4sss3uqCpManf4R1ZKr2XJXJVca5UNxUdNn",
    "0x761d584f1C2d43cBc3F42ECd739701a36dFFAa31"
  ],
  "numDeployments": 1,
  "solcInputHash": "40f1c0327ee837585f8bb45da65c77a2",
  "bytecode": "0x60806040523480156200001157600080fd5b506040516200239c3803806200239c8339810160408190526200003491620003f1565b8484600062000044838262000641565b50600162000053828262000641565b505050620000706200006a6200012460201b60201c565b62000128565b82518390600890819062000085908262000641565b50602082015160018201906200009c908262000641565b5060408201516002820190620000b3908262000641565b5060608201516003820190620000ca908262000641565b5060808201516004820190620000e1908262000641565b5060a08201516005820190620000f8908262000641565b50600791506200010b9050838262000641565b50620001198160016200017a565b505050505062000734565b3390565b600680546001600160a01b038381166001600160a01b0319831681179093556040519116919082907f8be0079c531659141344cd1fd0a4f28419497f9722a3daafe3b4186f6b6457e090600090a35050565b6001600160a01b038216620001d65760405162461bcd60e51b815260206004820181905260248201527f4552433732313a206d696e7420746f20746865207a65726f206164647265737360448201526064015b60405180910390fd5b6000818152600260205260409020546001600160a01b0316156200023d5760405162461bcd60e51b815260206004820152601c60248201527f4552433732313a20746f6b656e20616c7265616479206d696e746564000000006044820152606401620001cd565b6001600160a01b0382166000908152600360205260408120805460019290620002689084906200070d565b909155505060008181526002602052604080822080546001600160a01b0319166001600160a01b03861690811790915590518392907fddf252ad1be2c89b69c2b068fc378daa952ba7f163c4a11628f55a4df523b3ef908290a45050565b505050565b634e487b7160e01b600052604160045260246000fd5b60405160c081016001600160401b0381118282101715620003065762000306620002cb565b60405290565b604051601f8201601f191681016001600160401b0381118282101715620003375762000337620002cb565b604052919050565b600082601f8301126200035157600080fd5b81516001600160401b038111156200036d576200036d620002cb565b602062000383601f8301601f191682016200030c565b82815285828487010111156200039857600080fd5b60005b83811015620003b85785810183015182820184015282016200039b565b83811115620003ca5760008385840101525b5095945050505050565b80516001600160a01b0381168114620003ec57600080fd5b919050565b600080600080600060a086880312156200040a57600080fd5b85516001600160401b03808211156200042257600080fd5b6200043089838a016200033f565b965060208801519150808211156200044757600080fd5b6200045589838a016200033f565b955060408801519150808211156200046c57600080fd5b9087019060c0828a0312156200048157600080fd5b6200048b620002e1565b8251828111156200049b57600080fd5b620004a98b8286016200033f565b825250602083015182811115620004bf57600080fd5b620004cd8b8286016200033f565b602083015250604083015182811115620004e657600080fd5b620004f48b8286016200033f565b6040830152506060830151828111156200050d57600080fd5b6200051b8b8286016200033f565b6060830152506080830151828111156200053457600080fd5b620005428b8286016200033f565b60808301525060a0830151828111156200055b57600080fd5b620005698b8286016200033f565b60a08301525060608901519095509150808211156200058757600080fd5b5062000596888289016200033f565b925050620005a760808701620003d4565b90509295509295909350565b600181811c90821680620005c857607f821691505b602082108103620005e957634e487b7160e01b600052602260045260246000fd5b50919050565b601f821115620002c657600081815260208120601f850160051c81016020861015620006185750805b601f850160051c820191505b81811015620006395782815560010162000624565b505050505050565b81516001600160401b038111156200065d576200065d620002cb565b62000675816200066e8454620005b3565b84620005ef565b602080601f831160018114620006ad5760008415620006945750858301515b600019600386901b1c1916600185901b17855562000639565b600085815260208120601f198616915b82811015620006de57888601518255948401946001909101908401620006bd565b5085821015620006fd5787850151600019600388901b60f8161c191681555b5050505050600190811b01905550565b600082198211156200072f57634e487b7160e01b600052601160045260246000fd5b500190565b611c5880620007446000396000f3fe608060405234801561001057600080fd5b506004361061012c5760003560e01c8063715018a6116100ad578063b88d4fde11610071578063b88d4fde1461026a578063c87b56dd1461027d578063e8a3d48514610290578063e985e9c514610298578063f2fde38b146102d457600080fd5b8063715018a61461022e57806386d1a69f146102365780638da5cb5b1461023e57806395d89b411461024f578063a22cb4651461025757600080fd5b806323b872dd116100f457806323b872dd146101c157806342842e0e146101d457806357e30f44146101e75780636352211e146101fa57806370a082311461020d57600080fd5b806301ffc9a71461013157806304787ca21461015957806306fdde031461016e578063081812fc14610183578063095ea7b3146101ae575b600080fd5b61014461013f36600461107f565b6102e7565b60405190151581526020015b60405180910390f35b61016c610167366004611178565b610339565b005b610176610349565b6040516101509190611205565b610196610191366004611218565b6103db565b6040516001600160a01b039091168152602001610150565b61016c6101bc36600461124d565b610475565b61016c6101cf366004611277565b61058a565b61016c6101e2366004611277565b6105bb565b61016c6101f53660046112b3565b6105d6565b610196610208366004611218565b610658565b61022061021b3660046113d4565b6106cf565b604051908152602001610150565b61016c610756565b61016c61078c565b6006546001600160a01b0316610196565b6101766107b9565b61016c6102653660046113ef565b6107c8565b61016c61027836600461142b565b6107d3565b61017661028b366004611218565b610805565b61017661089c565b6101446102a63660046114a7565b6001600160a01b03918216600090815260056020908152604080832093909416825291909152205460ff1690565b61016c6102e23660046113d4565b6108e8565b60006001600160e01b031982166380ac58cd60e01b148061031857506001600160e01b03198216635b5e139f60e01b145b8061033357506301ffc9a760e01b6001600160e01b03198316145b92915050565b60076103458282611562565b5050565b606060008054610358906114da565b80601f0160208091040260200160405190810160405280929190818152602001828054610384906114da565b80156103d15780601f106103a6576101008083540402835291602001916103d1565b820191906000526020600020905b8154815290600101906020018083116103b457829003601f168201915b5050505050905090565b6000818152600260205260408120546001600160a01b03166104595760405162461bcd60e51b815260206004820152602c60248201527f4552433732313a20617070726f76656420717565727920666f72206e6f6e657860448201526b34b9ba32b73a103a37b5b2b760a11b60648201526084015b60405180910390fd5b506000908152600460205260409020546001600160a01b031690565b600061048082610658565b9050806001600160a01b0316836001600160a01b0316036104ed5760405162461bcd60e51b815260206004820152602160248201527f4552433732313a20617070726f76616c20746f2063757272656e74206f776e656044820152603960f91b6064820152608401610450565b336001600160a01b0382161480610509575061050981336102a6565b61057b5760405162461bcd60e51b815260206004820152603860248201527f4552433732313a20617070726f76652063616c6c6572206973206e6f74206f7760448201527f6e6572206e6f7220617070726f76656420666f7220616c6c00000000000000006064820152608401610450565b6105858383610983565b505050565b61059433826109f1565b6105b05760405162461bcd60e51b815260040161045090611622565b610585838383610ae8565b610585838383604051806020016040528060008152506107d3565b8051819060089081906105e99082611562565b50602082015160018201906105fe9082611562565b50604082015160028201906106139082611562565b50606082015160038201906106289082611562565b506080820151600482019061063d9082611562565b5060a082015160058201906106529082611562565b50505050565b6000818152600260205260408120546001600160a01b0316806103335760405162461bcd60e51b815260206004820152602960248201527f4552433732313a206f776e657220717565727920666f72206e6f6e657869737460448201526832b73a103a37b5b2b760b91b6064820152608401610450565b60006001600160a01b03821661073a5760405162461bcd60e51b815260206004820152602a60248201527f4552433732313a2062616c616e636520717565727920666f7220746865207a65604482015269726f206164647265737360b01b6064820152608401610450565b506001600160a01b031660009081526003602052604090205490565b6006546001600160a01b031633146107805760405162461bcd60e51b815260040161045090611673565b61078a6000610c84565b565b6006546001600160a01b031633146107b65760405162461bcd60e51b815260040161045090611673565b33ff5b606060018054610358906114da565b610345338383610cd6565b6107dd33836109f1565b6107f95760405162461bcd60e51b815260040161045090611622565b61065284848484610da4565b60606108766007610851604051806040016040528060078152602001660dcdeeadcd2e6d60cb1b815250604051806040016040528060048152602001637472756560e01b815250610dd7565b604051602001610862929190611737565b604051602081830303815290604052610e03565b604051602001610886919061187e565b6040516020818303038152906040529050919050565b6040516060906108c49061086290600890600990600a90600b90600c90600d906020016118c3565b6040516020016108d4919061187e565b604051602081830303815290604052905090565b6006546001600160a01b031633146109125760405162461bcd60e51b815260040161045090611673565b6001600160a01b0381166109775760405162461bcd60e51b815260206004820152602660248201527f4f776e61626c653a206e6577206f776e657220697320746865207a65726f206160448201526564647265737360d01b6064820152608401610450565b61098081610c84565b50565b600081815260046020526040902080546001600160a01b0319166001600160a01b03841690811790915581906109b882610658565b6001600160a01b03167f8c5be1e5ebec7d5bd14f71427d1e84f3dd0314c0f7b2291e5b200ac8c7c3b92560405160405180910390a45050565b6000818152600260205260408120546001600160a01b0316610a6a5760405162461bcd60e51b815260206004820152602c60248201527f4552433732313a206f70657261746f7220717565727920666f72206e6f6e657860448201526b34b9ba32b73a103a37b5b2b760a11b6064820152608401610450565b6000610a7583610658565b9050806001600160a01b0316846001600160a01b03161480610abc57506001600160a01b0380821660009081526005602090815260408083209388168352929052205460ff165b80610ae05750836001600160a01b0316610ad5846103db565b6001600160a01b0316145b949350505050565b826001600160a01b0316610afb82610658565b6001600160a01b031614610b5f5760405162461bcd60e51b815260206004820152602560248201527f4552433732313a207472616e736665722066726f6d20696e636f72726563742060448201526437bbb732b960d91b6064820152608401610450565b6001600160a01b038216610bc15760405162461bcd60e51b8152602060048201526024808201527f4552433732313a207472616e7366657220746f20746865207a65726f206164646044820152637265737360e01b6064820152608401610450565b610bcc600082610983565b6001600160a01b0383166000908152600360205260408120805460019290610bf5908490611a43565b90915550506001600160a01b0382166000908152600360205260408120805460019290610c23908490611a5a565b909155505060008181526002602052604080822080546001600160a01b0319166001600160a01b0386811691821790925591518493918716917fddf252ad1be2c89b69c2b068fc378daa952ba7f163c4a11628f55a4df523b3ef91a4505050565b600680546001600160a01b038381166001600160a01b0319831681179093556040519116919082907f8be0079c531659141344cd1fd0a4f28419497f9722a3daafe3b4186f6b6457e090600090a35050565b816001600160a01b0316836001600160a01b031603610d375760405162461bcd60e51b815260206004820152601960248201527f4552433732313a20617070726f766520746f2063616c6c6572000000000000006044820152606401610450565b6001600160a01b03838116600081815260056020908152604080832094871680845294825291829020805460ff191686151590811790915591519182527f17307eab39ab6107e8899845ad3d59bd9653f200f220920489ca2b5937696c31910160405180910390a3505050565b610daf848484610ae8565b610dbb84848484610f68565b6106525760405162461bcd60e51b815260040161045090611a72565b60608282604051602001610dec929190611ac4565b604051602081830303815290604052905092915050565b60608151600003610e2257505060408051602081019091526000815290565b6000604051806060016040528060408152602001611be36040913990506000600384516002610e519190611a5a565b610e5b9190611b47565b610e66906004611b69565b90506000610e75826020611a5a565b67ffffffffffffffff811115610e8d57610e8d6110a3565b6040519080825280601f01601f191660200182016040528015610eb7576020820181803683370190505b509050818152600183018586518101602084015b81831015610f23576003830192508251603f8160121c168501518253600182019150603f81600c1c168501518253600182019150603f8160061c168501518253600182019150603f8116850151825350600101610ecb565b600389510660018114610f3d5760028114610f4e57610f5a565b613d3d60f01b600119830152610f5a565b603d60f81b6000198301525b509398975050505050505050565b60006001600160a01b0384163b1561105e57604051630a85bd0160e11b81526001600160a01b0385169063150b7a0290610fac903390899088908890600401611b88565b6020604051808303816000875af1925050508015610fe7575060408051601f3d908101601f19168201909252610fe491810190611bc5565b60015b611044573d808015611015576040519150601f19603f3d011682016040523d82523d6000602084013e61101a565b606091505b50805160000361103c5760405162461bcd60e51b815260040161045090611a72565b805181602001fd5b6001600160e01b031916630a85bd0160e11b149050610ae0565b506001949350505050565b6001600160e01b03198116811461098057600080fd5b60006020828403121561109157600080fd5b813561109c81611069565b9392505050565b634e487b7160e01b600052604160045260246000fd5b60405160c0810167ffffffffffffffff811182821017156110dc576110dc6110a3565b60405290565b600067ffffffffffffffff808411156110fd576110fd6110a3565b604051601f8501601f19908116603f01168101908282118183101715611125576111256110a3565b8160405280935085815286868601111561113e57600080fd5b858560208301376000602087830101525050509392505050565b600082601f83011261116957600080fd5b61109c838335602085016110e2565b60006020828403121561118a57600080fd5b813567ffffffffffffffff8111156111a157600080fd5b610ae084828501611158565b60005b838110156111c85781810151838201526020016111b0565b838111156106525750506000910152565b600081518084526111f18160208601602086016111ad565b601f01601f19169290920160200192915050565b60208152600061109c60208301846111d9565b60006020828403121561122a57600080fd5b5035919050565b80356001600160a01b038116811461124857600080fd5b919050565b6000806040838503121561126057600080fd5b61126983611231565b946020939093013593505050565b60008060006060848603121561128c57600080fd5b61129584611231565b92506112a360208501611231565b9150604084013590509250925092565b6000602082840312156112c557600080fd5b813567ffffffffffffffff808211156112dd57600080fd5b9083019060c082860312156112f157600080fd5b6112f96110b9565b82358281111561130857600080fd5b61131487828601611158565b82525060208301358281111561132957600080fd5b61133587828601611158565b60208301525060408301358281111561134d57600080fd5b61135987828601611158565b60408301525060608301358281111561137157600080fd5b61137d87828601611158565b60608301525060808301358281111561139557600080fd5b6113a187828601611158565b60808301525060a0830135828111156113b957600080fd5b6113c587828601611158565b60a08301525095945050505050565b6000602082840312156113e657600080fd5b61109c82611231565b6000806040838503121561140257600080fd5b61140b83611231565b91506020830135801515811461142057600080fd5b809150509250929050565b6000806000806080858703121561144157600080fd5b61144a85611231565b935061145860208601611231565b925060408501359150606085013567ffffffffffffffff81111561147b57600080fd5b8501601f8101871361148c57600080fd5b61149b878235602084016110e2565b91505092959194509250565b600080604083850312156114ba57600080fd5b6114c383611231565b91506114d160208401611231565b90509250929050565b600181811c908216806114ee57607f821691505b60208210810361150e57634e487b7160e01b600052602260045260246000fd5b50919050565b601f82111561058557600081815260208120601f850160051c8101602086101561153b5750805b601f850160051c820191505b8181101561155a57828155600101611547565b505050505050565b815167ffffffffffffffff81111561157c5761157c6110a3565b6115908161158a84546114da565b84611514565b602080601f8311600181146115c557600084156115ad5750858301515b600019600386901b1c1916600185901b17855561155a565b600085815260208120601f198616915b828110156115f4578886015182559484019460019091019084016115d5565b50858210156116125787850151600019600388901b60f8161c191681555b5050505050600190811b01905550565b60208082526031908201527f4552433732313a207472616e736665722063616c6c6572206973206e6f74206f6040820152701ddb995c881b9bdc88185c1c1c9bdd9959607a1b606082015260800190565b6020808252818101527f4f776e61626c653a2063616c6c6572206973206e6f7420746865206f776e6572604082015260600190565b600081546116b5816114da565b600182811680156116cd57600181146116e257611711565b60ff1984168752821515830287019450611711565b8560005260208060002060005b858110156117085781548a8201529084019082016116ef565b50505082870194505b5050505092915050565b6000815161172d8185602086016111ad565b9290920192915050565b673d913730b6b2911d60c11b8152601160f91b60088201527f466f756e64696e6720654e6f756e657273202d20546865204561726c79204e6f600982015265756e6465727360d01b602982015261088b60f21b602f8201526d113232b9b1b934b83a34b7b7111d60911b6031820152601160f91b603f8201527f4c696d697465642045646974696f6e20312f3120636f6d6d656d6f726174697660408201527f6520636f6c6c65637461626c65206f66206561726c7920654e6f756e64657273606082015260006080820161088b60f21b8152671134b6b0b3b2911d60c11b6002820152601160f91b600a820152611832600b8201866116a8565b61088b60f21b815290506e2261747472696275746573223a205b60881b6002820152611861601182018561171b565b605d60f81b8152607d60f81b600182015260020195945050505050565b7f646174613a6170706c69636174696f6e2f6a736f6e3b6261736536342c0000008152600082516118b681601d8501602087016111ad565b91909101601d0192915050565b673d913730b6b2911d60c11b8152601160f91b600882015260006118ea60098301896116a8565b61088b60f21b815260026119108183016d113232b9b1b934b83a34b7b7111d60911b9052565b601160f91b6010830152611927601183018a6116a8565b61088b60f21b81529150671134b6b0b3b2911d60c11b82820152601160f91b600a830152611958600b8301896116a8565b61088b60f21b815291506e1132bc3a32b93730b62634b735911d60891b82820152601160f91b601183015261199060128301886116a8565b61088b60f21b815291507f2273656c6c65724665654261736973506f696e7473223a00000000000000000082820152601160f91b60198301526119d6601a8301876116a8565b61088b60f21b815291506e113332b2a932b1b4b834b2b73a111d60891b82820152601160f91b6011830152611a0e60128301866116a8565b601160f91b8152607d60f81b6001820152019998505050505050505050565b634e487b7160e01b600052601160045260246000fd5b600082821015611a5557611a55611a2d565b500390565b60008219821115611a6d57611a6d611a2d565b500190565b60208082526032908201527f4552433732313a207472616e7366657220746f206e6f6e20455243373231526560408201527131b2b4bb32b91034b6b83632b6b2b73a32b960711b606082015260800190565b6e3d913a3930b4ba2fba3cb832911d1160891b81528251600090611aef81600f8501602088016111ad565b61088b60f21b600f9184019182015267113b30b63ab2911d60c11b6011820152601160f91b60198201528351611b2c81601a8401602088016111ad565b61227d60f01b601a9290910191820152601c01949350505050565b600082611b6457634e487b7160e01b600052601260045260246000fd5b500490565b6000816000190483118215151615611b8357611b83611a2d565b500290565b6001600160a01b0385811682528416602082015260408101839052608060608201819052600090611bbb908301846111d9565b9695505050505050565b600060208284031215611bd757600080fd5b815161109c8161106956fe4142434445464748494a4b4c4d4e4f505152535455565758595a6162636465666768696a6b6c6d6e6f707172737475767778797a303132333435363738392b2fa2646970667358221220746190f0a4aeca3dafa39fb15e1a84028893c2e6074186beede349695788756f64736f6c634300080f0033",
  "devdoc": {
    "author": "Kames Geraghty",
    "kind": "dev",
    "methods": {
      "approve(address,uint256)": {
        "details": "See {IERC721-approve}."
      },
      "balanceOf(address)": {
        "details": "See {IERC721-balanceOf}."
      },
      "constructor": {
        "params": {
          "contractURI": "ContractURI - Contract URI for the token",
          "imageURI": "string - Image URI for the token",
          "name": "string - Name of ERC721 token",
          "symbol": "string - Symbol of ERC721 token"
        }
      },
      "getApproved(uint256)": {
        "details": "See {IERC721-getApproved}."
      },
      "isApprovedForAll(address,address)": {
        "details": "See {IERC721-isApprovedForAll}."
      },
      "name()": {
        "details": "See {IERC721Metadata-name}."
      },
      "owner()": {
        "details": "Returns the address of the current owner."
      },
      "ownerOf(uint256)": {
        "details": "See {IERC721-ownerOf}."
      },
      "renounceOwnership()": {
        "details": "Leaves the contract without owner. It will not be possible to call `onlyOwner` functions anymore. Can only be called by the current owner. NOTE: Renouncing ownership will leave the contract without an owner, thereby removing any functionality that is only available to the owner."
      },
      "safeTransferFrom(address,address,uint256)": {
        "details": "See {IERC721-safeTransferFrom}."
      },
      "safeTransferFrom(address,address,uint256,bytes)": {
        "details": "See {IERC721-safeTransferFrom}."
      },
      "setApprovalForAll(address,bool)": {
        "details": "See {IERC721-setApprovalForAll}."
      },
      "supportsInterface(bytes4)": {
        "details": "See {IERC165-supportsInterface}."
      },
      "symbol()": {
        "details": "See {IERC721Metadata-symbol}."
      },
      "tokenURI(uint256)": {
        "details": "See {IERC721Metadata-tokenURI}."
      },
      "transferFrom(address,address,uint256)": {
        "details": "See {IERC721-transferFrom}."
      },
      "transferOwnership(address)": {
        "details": "Transfers ownership of the contract to a new account (`newOwner`). Can only be called by the current owner."
      }
    },
    "title": "eNounders",
    "version": 1
  },
  "userdoc": {
    "kind": "user",
    "methods": {
      "constructor": {
        "notice": "ENounders Construction"
      }
    },
    "notice": "Limited Edition commemorative tokens for the Ethereum Noun System.",
    "version": 1
  },
  "storageLayout": {
    "storage": [
      {
        "astId": 130,
        "contract": "contracts/ENounders/ENounders.sol:ENounders",
        "label": "_name",
        "offset": 0,
        "slot": "0",
        "type": "t_string_storage"
      },
      {
        "astId": 132,
        "contract": "contracts/ENounders/ENounders.sol:ENounders",
        "label": "_symbol",
        "offset": 0,
        "slot": "1",
        "type": "t_string_storage"
      },
      {
        "astId": 136,
        "contract": "contracts/ENounders/ENounders.sol:ENounders",
        "label": "_owners",
        "offset": 0,
        "slot": "2",
        "type": "t_mapping(t_uint256,t_address)"
      },
      {
        "astId": 140,
        "contract": "contracts/ENounders/ENounders.sol:ENounders",
        "label": "_balances",
        "offset": 0,
        "slot": "3",
        "type": "t_mapping(t_address,t_uint256)"
      },
      {
        "astId": 144,
        "contract": "contracts/ENounders/ENounders.sol:ENounders",
        "label": "_tokenApprovals",
        "offset": 0,
        "slot": "4",
        "type": "t_mapping(t_uint256,t_address)"
      },
      {
        "astId": 150,
        "contract": "contracts/ENounders/ENounders.sol:ENounders",
        "label": "_operatorApprovals",
        "offset": 0,
        "slot": "5",
        "type": "t_mapping(t_address,t_mapping(t_address,t_bool))"
      },
      {
        "astId": 7,
        "contract": "contracts/ENounders/ENounders.sol:ENounders",
        "label": "_owner",
        "offset": 0,
        "slot": "6",
        "type": "t_address"
      },
      {
        "astId": 2044,
        "contract": "contracts/ENounders/ENounders.sol:ENounders",
        "label": "_imageURI",
        "offset": 0,
        "slot": "7",
        "type": "t_string_storage"
      },
      {
        "astId": 2047,
        "contract": "contracts/ENounders/ENounders.sol:ENounders",
        "label": "_contractURI",
        "offset": 0,
        "slot": "8",
        "type": "t_struct(ContractURI)2060_storage"
      }
    ],
    "types": {
      "t_address": {
        "encoding": "inplace",
        "label": "address",
        "numberOfBytes": "20"
      },
      "t_bool": {
        "encoding": "inplace",
        "label": "bool",
        "numberOfBytes": "1"
      },
      "t_mapping(t_address,t_bool)": {
        "encoding": "mapping",
        "key": "t_address",
        "label": "mapping(address => bool)",
        "numberOfBytes": "32",
        "value": "t_bool"
      },
      "t_mapping(t_address,t_mapping(t_address,t_bool))": {
        "encoding": "mapping",
        "key": "t_address",
        "label": "mapping(address => mapping(address => bool))",
        "numberOfBytes": "32",
        "value": "t_mapping(t_address,t_bool)"
      },
      "t_mapping(t_address,t_uint256)": {
        "encoding": "mapping",
        "key": "t_address",
        "label": "mapping(address => uint256)",
        "numberOfBytes": "32",
        "value": "t_uint256"
      },
      "t_mapping(t_uint256,t_address)": {
        "encoding": "mapping",
        "key": "t_uint256",
        "label": "mapping(uint256 => address)",
        "numberOfBytes": "32",
        "value": "t_address"
      },
      "t_string_storage": {
        "encoding": "bytes",
        "label": "string",
        "numberOfBytes": "32"
      },
      "t_struct(ContractURI)2060_storage": {
        "encoding": "inplace",
        "label": "struct ENounders.ContractURI",
        "members": [
          {
            "astId": 2049,
            "contract": "contracts/ENounders/ENounders.sol:ENounders",
            "label": "name",
            "offset": 0,
            "slot": "0",
            "type": "t_string_storage"
          },
          {
            "astId": 2051,
            "contract": "contracts/ENounders/ENounders.sol:ENounders",
            "label": "description",
            "offset": 0,
            "slot": "1",
            "type": "t_string_storage"
          },
          {
            "astId": 2053,
            "contract": "contracts/ENounders/ENounders.sol:ENounders",
            "label": "image",
            "offset": 0,
            "slot": "2",
            "type": "t_string_storage"
          },
          {
            "astId": 2055,
            "contract": "contracts/ENounders/ENounders.sol:ENounders",
            "label": "externalLink",
            "offset": 0,
            "slot": "3",
            "type": "t_string_storage"
          },
          {
            "astId": 2057,
            "contract": "contracts/ENounders/ENounders.sol:ENounders",
            "label": "sellerFeeBasisPoints",
            "offset": 0,
            "slot": "4",
            "type": "t_string_storage"
          },
          {
            "astId": 2059,
            "contract": "contracts/ENounders/ENounders.sol:ENounders",
            "label": "feeRecipient",
            "offset": 0,
            "slot": "5",
            "type": "t_string_storage"
          }
        ],
        "numberOfBytes": "192"
      },
      "t_uint256": {
        "encoding": "inplace",
        "label": "uint256",
        "numberOfBytes": "32"
      }
    }
  }
}