{
  "address": "0xd597CbDCc7ab73B9a8B0c1627f435e19Fd302d93",
  "abi": [
    {
      "inputs": [
        {
          "internalType": "address",
          "name": "nounsDescriptor",
          "type": "address"
        },
        {
          "internalType": "address",
          "name": "ensReverseRecords",
          "type": "address"
        }
      ],
      "stateMutability": "nonpayable",
      "type": "constructor"
    },
    {
      "anonymous": false,
      "inputs": [
        {
          "indexed": true,
          "internalType": "address",
          "name": "previousOwner",
          "type": "address"
        },
        {
          "indexed": true,
          "internalType": "address",
          "name": "newOwner",
          "type": "address"
        }
      ],
      "name": "OwnershipTransferred",
      "type": "event"
    },
    {
      "inputs": [
        {
          "internalType": "uint256",
          "name": "_tokenId",
          "type": "uint256"
        },
        {
          "internalType": "string",
          "name": "_alias",
          "type": "string"
        }
      ],
      "name": "generate",
      "outputs": [
        {
          "internalType": "string",
          "name": "",
          "type": "string"
        }
      ],
      "stateMutability": "view",
      "type": "function"
    },
    {
      "inputs": [],
      "name": "owner",
      "outputs": [
        {
          "internalType": "address",
          "name": "",
          "type": "address"
        }
      ],
      "stateMutability": "view",
      "type": "function"
    },
    {
      "inputs": [
        {
          "internalType": "bytes",
          "name": "input",
          "type": "bytes"
        }
      ],
      "name": "render",
      "outputs": [
        {
          "internalType": "string",
          "name": "",
          "type": "string"
        }
      ],
      "stateMutability": "view",
      "type": "function"
    },
    {
      "inputs": [
        {
          "internalType": "address",
          "name": "user",
          "type": "address"
        }
      ],
      "name": "renderUsingAddress",
      "outputs": [
        {
          "internalType": "string",
          "name": "",
          "type": "string"
        }
      ],
      "stateMutability": "view",
      "type": "function"
    },
    {
      "inputs": [
        {
          "internalType": "string",
          "name": "ensName",
          "type": "string"
        }
      ],
      "name": "renderUsingEnsName",
      "outputs": [
        {
          "internalType": "string",
          "name": "",
          "type": "string"
        }
      ],
      "stateMutability": "view",
      "type": "function"
    },
    {
      "inputs": [],
      "name": "renounceOwnership",
      "outputs": [],
      "stateMutability": "nonpayable",
      "type": "function"
    },
    {
      "inputs": [
        {
          "internalType": "address",
          "name": "newOwner",
          "type": "address"
        }
      ],
      "name": "transferOwnership",
      "outputs": [],
      "stateMutability": "nonpayable",
      "type": "function"
    }
  ],
  "transactionHash": "0x8ba36a1963ecabe8776095440a279115c685e669d33f3566e04b2d3159cca185",
  "args": [
    "0x0Cfdb3Ba1694c2bb2CFACB0339ad7b1Ae5932B63",
    "0x3671aE578E63FdF66ad4F3E12CC0c0d71Ac7510C"
  ],
  "numDeployments": 1,
  "solcInputHash": "9ff91e743f89171638eb63f409bd4bb1",
  "bytecode": "0x60c060405234801561001057600080fd5b5060405161122338038061122383398101604081905261002f916100bb565b6100383361004f565b6001600160a01b039182166080521660a0526100ee565b600080546001600160a01b038381166001600160a01b0319831681178455604051919092169283917f8be0079c531659141344cd1fd0a4f28419497f9722a3daafe3b4186f6b6457e09190a35050565b80516001600160a01b03811681146100b657600080fd5b919050565b600080604083850312156100ce57600080fd5b6100d78361009f565b91506100e56020840161009f565b90509250929050565b60805160a0516110df610144600039600061095e015260008181610181015281816102da015281816103d70152818161050a01528181610590015281816106160152818161069c015261072201526110df6000f3fe608060405234801561001057600080fd5b506004361061007d5760003560e01c80638da5cb5b1161005b5780638da5cb5b146100d7578063a53344e7146100f2578063a8427cc814610105578063f2fde38b1461011857600080fd5b8063231c1d4314610082578063316df61e146100ba578063715018a6146100cd575b600080fd5b6100a4610090366004610ce2565b505060408051602081019091526000815290565b6040516100b19190610d59565b60405180910390f35b6100a46100c8366004610d8c565b61012b565b6100d5610238565b005b6000546040516001600160a01b0390911681526020016100b1565b6100a4610100366004610dd5565b6102a3565b6100a4610113366004610e0a565b6103a0565b6100d5610126366004610e0a565b610410565b60606000828060200190518101906101439190610e33565b60408051808201909152601a81527919185d184e9a5b5859d94bdcdd99cade1b5b0ed8985cd94d8d0b60321b60208201529091506001600160a01b037f000000000000000000000000000000000000000000000000000000000000000016632ea043006101af846104db565b6040518263ffffffff1660e01b81526004016101cb9190610e4c565b600060405180830381865afa1580156101e8573d6000803e3d6000fd5b505050506040513d6000823e601f3d908101601f191682016040526102109190810190610ed7565b604051602001610221929190610f0c565b604051602081830303815290604052915050919050565b6000546001600160a01b031633146102975760405162461bcd60e51b815260206004820181905260248201527f4f776e61626c653a2063616c6c6572206973206e6f7420746865206f776e657260448201526064015b60405180910390fd5b6102a1600061086c565b565b60606040518060400160405280601a81526020017919185d184e9a5b5859d94bdcdd99cade1b5b0ed8985cd94d8d0b60321b8152507f00000000000000000000000000000000000000000000000000000000000000006001600160a01b0316632ea04300610318610313866108bc565b6104db565b6040518263ffffffff1660e01b81526004016103349190610e4c565b600060405180830381865afa158015610351573d6000803e3d6000fd5b505050506040513d6000823e601f3d908101601f191682016040526103799190810190610ed7565b60405160200161038a929190610f0c565b6040516020818303038152906040529050919050565b60606040518060400160405280601a81526020017919185d184e9a5b5859d94bdcdd99cade1b5b0ed8985cd94d8d0b60321b8152507f00000000000000000000000000000000000000000000000000000000000000006001600160a01b0316632ea04300610318610313866108cd565b6000546001600160a01b0316331461046a5760405162461bcd60e51b815260206004820181905260248201527f4f776e61626c653a2063616c6c6572206973206e6f7420746865206f776e6572604482015260640161028e565b6001600160a01b0381166104cf5760405162461bcd60e51b815260206004820152602660248201527f4f776e61626c653a206e6577206f776e657220697320746865207a65726f206160448201526564647265737360d01b606482015260840161028e565b6104d88161086c565b50565b6040805160a08101825260008082526020820181905291810182905260608101829052608081019190915260007f00000000000000000000000000000000000000000000000000000000000000006001600160a01b0316634531c0a86040518163ffffffff1660e01b8152600401602060405180830381865afa158015610566573d6000803e3d6000fd5b505050506040513d601f19601f8201168201806040525081019061058a9190610e33565b905060007f00000000000000000000000000000000000000000000000000000000000000006001600160a01b031663eba818066040518163ffffffff1660e01b8152600401602060405180830381865afa1580156105ec573d6000803e3d6000fd5b505050506040513d601f19601f820116820180604052508101906106109190610e33565b905060007f00000000000000000000000000000000000000000000000000000000000000006001600160a01b0316634daebac26040518163ffffffff1660e01b8152600401602060405180830381865afa158015610672573d6000803e3d6000fd5b505050506040513d601f19601f820116820180604052508101906106969190610e33565b905060007f00000000000000000000000000000000000000000000000000000000000000006001600160a01b031663cc2aa0916040518163ffffffff1660e01b8152600401602060405180830381865afa1580156106f8573d6000803e3d6000fd5b505050506040513d601f19601f8201168201806040525081019061071c9190610e33565b905060007f00000000000000000000000000000000000000000000000000000000000000006001600160a01b0316634479cef26040518163ffffffff1660e01b8152600401602060405180830381865afa15801561077e573d6000803e3d6000fd5b505050506040513d601f19601f820116820180604052508101906107a29190610e33565b90506040518060a00160405280868965ffffffffffff166107c39190610f3b565b65ffffffffffff1681526020018560308a901c65ffffffffffff166107e89190610f3b565b65ffffffffffff1681526020018460608a901c65ffffffffffff1661080d9190610f3b565b65ffffffffffff1681526020018360908a901c65ffffffffffff166108329190610f3b565b65ffffffffffff1681526020018260c08a901c65ffffffffffff166108579190610f3b565b65ffffffffffff169052979650505050505050565b600080546001600160a01b038381166001600160a01b0319831681178455604051919092169283917f8be0079c531659141344cd1fd0a4f28419497f9722a3daafe3b4186f6b6457e09190a35050565b60006108c7826108eb565b92915050565b6000806108d9836108ff565b90506108e4816108eb565b9392505050565b6000806108f7836109fc565b949350505050565b6040805160018082528183019092526060916000919060208083019080368337019050509050828160008151811061093957610939610f5d565b6001600160a01b0392831660209182029290920101526040516332fe2d9b60e21b81527f00000000000000000000000000000000000000000000000000000000000000009091169063cbf8b66c90610995908490600401610f73565b600060405180830381865afa1580156109b2573d6000803e3d6000fd5b505050506040513d6000823e601f3d908101601f191682016040526109da9190810190610fc0565b6000815181106109ec576109ec610f5d565b6020026020010151915050919050565b805160609060009081908490610a13816002611083565b67ffffffffffffffff811115610a2b57610a2b610c15565b6040519080825280601f01601f191660200182016040528015610a55576020820181803683370190505b50945060009350808403610a9a57600060f81b85600081518110610a7b57610a7b610f5d565b60200101906001600160f81b031916908160001a905350505050915091565b60001981015b828181518110610ab257610ab2610f5d565b01602001516001600160f81b031916601760f91b03610b40578360f81b868260010181518110610ae457610ae4610f5d565b60200101906001600160f81b031916908160001a90535084610b0d846001840160ff8816610bf1565b60408051602081019390935282015260600160405160208183030381529060405280519060200120945060009350610b90565b600184019350828181518110610b5857610b58610f5d565b602001015160f81c60f81b868260010181518110610b7857610b78610f5d565b60200101906001600160f81b031916908160001a9053505b8015610b9f5760001901610aa0565b5083610bb083600060ff8716610bf1565b6040805160208101939093528201526060016040516020818303038152906040528051906020012093508260f81b85600081518110610a7b57610a7b610f5d565b8251600090610c008385611083565b1115610c0b57600080fd5b5091016020012090565b634e487b7160e01b600052604160045260246000fd5b604051601f8201601f1916810167ffffffffffffffff81118282101715610c5457610c54610c15565b604052919050565b600067ffffffffffffffff821115610c7657610c76610c15565b50601f01601f191660200190565b6000610c97610c9284610c5c565b610c2b565b9050828152838383011115610cab57600080fd5b828260208301376000602084830101529392505050565b600082601f830112610cd357600080fd5b6108e483833560208501610c84565b60008060408385031215610cf557600080fd5b82359150602083013567ffffffffffffffff811115610d1357600080fd5b610d1f85828601610cc2565b9150509250929050565b60005b83811015610d44578181015183820152602001610d2c565b83811115610d53576000848401525b50505050565b6020815260008251806020840152610d78816040850160208701610d29565b601f01601f19169190910160400192915050565b600060208284031215610d9e57600080fd5b813567ffffffffffffffff811115610db557600080fd5b8201601f81018413610dc657600080fd5b6108f784823560208401610c84565b600060208284031215610de757600080fd5b813567ffffffffffffffff811115610dfe57600080fd5b6108f784828501610cc2565b600060208284031215610e1c57600080fd5b81356001600160a01b03811681146108e457600080fd5b600060208284031215610e4557600080fd5b5051919050565b815165ffffffffffff9081168252602080840151821690830152604080840151821690830152606080840151821690830152608092830151169181019190915260a00190565b600082601f830112610ea357600080fd5b8151610eb1610c9282610c5c565b818152846020838601011115610ec657600080fd5b6108f7826020830160208701610d29565b600060208284031215610ee957600080fd5b815167ffffffffffffffff811115610f0057600080fd5b6108f784828501610e92565b60008351610f1e818460208801610d29565b835190830190610f32818360208801610d29565b01949350505050565b600082610f5857634e487b7160e01b600052601260045260246000fd5b500690565b634e487b7160e01b600052603260045260246000fd5b6020808252825182820181905260009190848201906040850190845b81811015610fb45783516001600160a01b031683529284019291840191600101610f8f565b50909695505050505050565b60006020808385031215610fd357600080fd5b825167ffffffffffffffff80821115610feb57600080fd5b818501915085601f830112610fff57600080fd5b81518181111561101157611011610c15565b8060051b611020858201610c2b565b918252838101850191858101908984111561103a57600080fd5b86860192505b83831015611076578251858111156110585760008081fd5b6110668b89838a0101610e92565b8352509186019190860190611040565b9998505050505050505050565b600082198211156110a457634e487b7160e01b600052601160045260246000fd5b50019056fea26469706673582212207aa8f23a22de2356b2e84919a249884e8a388b4982173a85bfa3252b4f9498c964736f6c634300080f0033",
  "devdoc": {
    "kind": "dev",
    "methods": {
      "owner()": {
        "details": "Returns the address of the current owner."
      },
      "renounceOwnership()": {
        "details": "Leaves the contract without owner. It will not be possible to call `onlyOwner` functions anymore. Can only be called by the current owner. NOTE: Renouncing ownership will leave the contract without an owner, thereby removing any functionality that is only available to the owner."
      },
      "transferOwnership(address)": {
        "details": "Transfers ownership of the contract to a new account (`newOwner`). Can only be called by the current owner."
      }
    },
    "version": 1
  },
  "userdoc": {
    "kind": "user",
    "methods": {},
    "version": 1
  },
  "storageLayout": {
    "storage": [
      {
        "astId": 7,
        "contract": "contracts/ENounsRender.sol:ENounsRender",
        "label": "_owner",
        "offset": 0,
        "slot": "0",
        "type": "t_address"
      }
    ],
    "types": {
      "t_address": {
        "encoding": "inplace",
        "label": "address",
        "numberOfBytes": "20"
      }
    }
  }
}