{
  "address": "0x5FC8d32690cc91D4c39d9d3abcBD16989F875707",
  "abi": [
    {
      "inputs": [
        {
          "internalType": "uint8[]",
          "name": "keys",
          "type": "uint8[]"
        },
        {
          "internalType": "string[]",
          "name": "elements",
          "type": "string[]"
        }
      ],
      "stateMutability": "nonpayable",
      "type": "constructor"
    },
    {
      "anonymous": false,
      "inputs": [
        {
          "indexed": true,
          "internalType": "address",
          "name": "previousOwner",
          "type": "address"
        },
        {
          "indexed": true,
          "internalType": "address",
          "name": "newOwner",
          "type": "address"
        }
      ],
      "name": "OwnershipTransferred",
      "type": "event"
    },
    {
      "inputs": [
        {
          "internalType": "uint8",
          "name": "element",
          "type": "uint8"
        }
      ],
      "name": "getElement",
      "outputs": [
        {
          "internalType": "string",
          "name": "",
          "type": "string"
        }
      ],
      "stateMutability": "view",
      "type": "function"
    },
    {
      "inputs": [],
      "name": "getEncoding",
      "outputs": [
        {
          "internalType": "string",
          "name": "",
          "type": "string"
        }
      ],
      "stateMutability": "view",
      "type": "function"
    },
    {
      "inputs": [],
      "name": "owner",
      "outputs": [
        {
          "internalType": "address",
          "name": "",
          "type": "address"
        }
      ],
      "stateMutability": "view",
      "type": "function"
    },
    {
      "inputs": [
        {
          "internalType": "bytes",
          "name": "input",
          "type": "bytes"
        }
      ],
      "name": "render",
      "outputs": [
        {
          "internalType": "string",
          "name": "",
          "type": "string"
        }
      ],
      "stateMutability": "view",
      "type": "function"
    },
    {
      "inputs": [],
      "name": "renounceOwnership",
      "outputs": [],
      "stateMutability": "nonpayable",
      "type": "function"
    },
    {
      "inputs": [
        {
          "internalType": "uint8",
          "name": "key",
          "type": "uint8"
        },
        {
          "internalType": "string",
          "name": "svg",
          "type": "string"
        }
      ],
      "name": "setElement",
      "outputs": [],
      "stateMutability": "nonpayable",
      "type": "function"
    },
    {
      "inputs": [
        {
          "internalType": "address",
          "name": "newOwner",
          "type": "address"
        }
      ],
      "name": "transferOwnership",
      "outputs": [],
      "stateMutability": "nonpayable",
      "type": "function"
    }
  ],
  "transactionHash": "0x4e01e874ad006072269bf31ada6f261ace3ec477b8aa62e0a285232bb3e6ae06",
  "args": [
    [
      0,
      1,
      2,
      3,
      4
    ],
    [
      "ðŸº",
      "ðŸ¦œ",
      "ðŸ¦Š",
      "ðŸ™"
    ]
  ],
  "numDeployments": 1,
  "solcInputHash": "bf4d5602c5fbb53fc064060f0a53a702",
  "bytecode": "0x60806040523480156200001157600080fd5b5060405162000c9438038062000c948339810160408190526200003491620002a6565b6200003f33620000cb565b60005b8151811015620000c2578181815181106200006157620000616200037e565b6020026020010151600160008584815181106200008257620000826200037e565b602002602001015160ff1660ff1681526020019081526020016000209081620000ac919062000423565b5080620000b981620004ef565b91505062000042565b50505062000517565b600080546001600160a01b038381166001600160a01b0319831681178455604051919092169283917f8be0079c531659141344cd1fd0a4f28419497f9722a3daafe3b4186f6b6457e09190a35050565b634e487b7160e01b600052604160045260246000fd5b604051601f8201601f191681016001600160401b03811182821017156200015c576200015c6200011b565b604052919050565b60006001600160401b038211156200018057620001806200011b565b5060051b60200190565b6000601f83818401126200019d57600080fd5b82516020620001b6620001b08362000164565b62000131565b82815260059290921b85018101918181019087841115620001d657600080fd5b8287015b848110156200029a5780516001600160401b0380821115620001fc5760008081fd5b818a0191508a603f830112620002125760008081fd5b85820151818111156200022957620002296200011b565b6200023c818a01601f1916880162000131565b915080825260408c81838601011115620002565760008081fd5b60005b8281101562000276578481018201518482018a0152880162000259565b82811115620002885760008984860101525b505050845250918301918301620001da565b50979650505050505050565b60008060408385031215620002ba57600080fd5b82516001600160401b0380821115620002d257600080fd5b818501915085601f830112620002e757600080fd5b81516020620002fa620001b08362000164565b82815260059290921b840181019181810190898411156200031a57600080fd5b948201945b838610156200034b57855160ff811681146200033b5760008081fd5b825294820194908201906200031f565b918801519196509093505050808211156200036557600080fd5b5062000374858286016200018a565b9150509250929050565b634e487b7160e01b600052603260045260246000fd5b600181811c90821680620003a957607f821691505b602082108103620003ca57634e487b7160e01b600052602260045260246000fd5b50919050565b601f8211156200041e57600081815260208120601f850160051c81016020861015620003f95750805b601f850160051c820191505b818110156200041a5782815560010162000405565b5050505b505050565b81516001600160401b038111156200043f576200043f6200011b565b620004578162000450845462000394565b84620003d0565b602080601f8311600181146200048f5760008415620004765750858301515b600019600386901b1c1916600185901b1785556200041a565b600085815260208120601f198616915b82811015620004c0578886015182559484019460019091019084016200049f565b5085821015620004df5787850151600019600388901b60f8161c191681555b5050505050600190811b01905550565b6000600182016200051057634e487b7160e01b600052601160045260246000fd5b5060010190565b61076d80620005276000396000f3fe608060405234801561001057600080fd5b506004361061007d5760003560e01c80638da5cb5b1161005b5780638da5cb5b146100c8578063b1cd921f146100e3578063cfbe627214610106578063f2fde38b1461011957600080fd5b8063316df61e146100825780635847df80146100ab578063715018a6146100be575b600080fd5b6100956100903660046103ef565b61012c565b6040516100a29190610461565b60405180910390f35b6100956100b93660046104cc565b6101e4565b6100c661028a565b005b6000546040516001600160a01b0390911681526020016100a2565b6040805180820190915260078152662875696e74382960c81b6020820152610095565b6100c6610114366004610504565b61029e565b6100c66101273660046105c6565b6102c7565b6060600061013c838501856104cc565b60ff8116600090815260016020526040902080549192509061015d906105ef565b80601f0160208091040260200160405190810160405280929190818152602001828054610189906105ef565b80156101d65780601f106101ab576101008083540402835291602001916101d6565b820191906000526020600020905b8154815290600101906020018083116101b957829003601f168201915b505050505091505092915050565b60ff81166000908152600160205260409020805460609190610205906105ef565b80601f0160208091040260200160405190810160405280929190818152602001828054610231906105ef565b801561027e5780601f106102535761010080835404028352916020019161027e565b820191906000526020600020905b81548152906001019060200180831161026157829003601f168201915b50505050509050919050565b610292610345565b61029c600061039f565b565b6102a6610345565b60ff821660009081526001602052604090206102c28282610677565b505050565b6102cf610345565b6001600160a01b0381166103395760405162461bcd60e51b815260206004820152602660248201527f4f776e61626c653a206e6577206f776e657220697320746865207a65726f206160448201526564647265737360d01b60648201526084015b60405180910390fd5b6103428161039f565b50565b6000546001600160a01b0316331461029c5760405162461bcd60e51b815260206004820181905260248201527f4f776e61626c653a2063616c6c6572206973206e6f7420746865206f776e65726044820152606401610330565b600080546001600160a01b038381166001600160a01b0319831681178455604051919092169283917f8be0079c531659141344cd1fd0a4f28419497f9722a3daafe3b4186f6b6457e09190a35050565b6000806020838503121561040257600080fd5b823567ffffffffffffffff8082111561041a57600080fd5b818501915085601f83011261042e57600080fd5b81358181111561043d57600080fd5b86602082850101111561044f57600080fd5b60209290920196919550909350505050565b600060208083528351808285015260005b8181101561048e57858101830151858201604001528201610472565b818111156104a0576000604083870101525b50601f01601f1916929092016040019392505050565b803560ff811681146104c757600080fd5b919050565b6000602082840312156104de57600080fd5b6104e7826104b6565b9392505050565b634e487b7160e01b600052604160045260246000fd5b6000806040838503121561051757600080fd5b610520836104b6565b9150602083013567ffffffffffffffff8082111561053d57600080fd5b818501915085601f83011261055157600080fd5b813581811115610563576105636104ee565b604051601f8201601f19908116603f0116810190838211818310171561058b5761058b6104ee565b816040528281528860208487010111156105a457600080fd5b8260208601602083013760006020848301015280955050505050509250929050565b6000602082840312156105d857600080fd5b81356001600160a01b03811681146104e757600080fd5b600181811c9082168061060357607f821691505b60208210810361062357634e487b7160e01b600052602260045260246000fd5b50919050565b601f8211156102c257600081815260208120601f850160051c810160208610156106505750805b601f850160051c820191505b8181101561066f5782815560010161065c565b505050505050565b815167ffffffffffffffff811115610691576106916104ee565b6106a58161069f84546105ef565b84610629565b602080601f8311600181146106da57600084156106c25750858301515b600019600386901b1c1916600185901b17855561066f565b600085815260208120601f198616915b82811015610709578886015182559484019460019091019084016106ea565b50858210156107275787850151600019600388901b60f8161c191681555b5050505050600190811b0190555056fea264697066735822122016d45acee62fa0996a0416842bd3bbe0aac5ddadcc7501db57269ed381818e2564736f6c634300080f0033",
  "devdoc": {
    "kind": "dev",
    "methods": {
      "owner()": {
        "details": "Returns the address of the current owner."
      },
      "renounceOwnership()": {
        "details": "Leaves the contract without owner. It will not be possible to call `onlyOwner` functions anymore. Can only be called by the current owner. NOTE: Renouncing ownership will leave the contract without an owner, thereby removing any functionality that is only available to the owner."
      },
      "transferOwnership(address)": {
        "details": "Transfers ownership of the contract to a new account (`newOwner`). Can only be called by the current owner."
      }
    },
    "version": 1
  },
  "userdoc": {
    "kind": "user",
    "methods": {},
    "version": 1
  },
  "storageLayout": {
    "storage": [
      {
        "astId": 3024,
        "contract": "@erc721k/core-sol/contracts/examples/ExampleSvgModule.sol:ExampleSvgModule",
        "label": "_owner",
        "offset": 0,
        "slot": "0",
        "type": "t_address"
      },
      {
        "astId": 952,
        "contract": "@erc721k/core-sol/contracts/examples/ExampleSvgModule.sol:ExampleSvgModule",
        "label": "_elements",
        "offset": 0,
        "slot": "1",
        "type": "t_mapping(t_uint8,t_string_storage)"
      }
    ],
    "types": {
      "t_address": {
        "encoding": "inplace",
        "label": "address",
        "numberOfBytes": "20"
      },
      "t_mapping(t_uint8,t_string_storage)": {
        "encoding": "mapping",
        "key": "t_uint8",
        "label": "mapping(uint8 => string)",
        "numberOfBytes": "32",
        "value": "t_string_storage"
      },
      "t_string_storage": {
        "encoding": "bytes",
        "label": "string",
        "numberOfBytes": "32"
      },
      "t_uint8": {
        "encoding": "inplace",
        "label": "uint8",
        "numberOfBytes": "1"
      }
    }
  }
}