{
  "address": "0xDc64a140Aa3E981100a9becA4E685f962f0cF6C9",
  "abi": [
    {
      "inputs": [],
      "stateMutability": "nonpayable",
      "type": "constructor"
    },
    {
      "anonymous": false,
      "inputs": [
        {
          "indexed": true,
          "internalType": "address",
          "name": "previousOwner",
          "type": "address"
        },
        {
          "indexed": true,
          "internalType": "address",
          "name": "newOwner",
          "type": "address"
        }
      ],
      "name": "OwnershipTransferred",
      "type": "event"
    },
    {
      "inputs": [
        {
          "internalType": "bytes32",
          "name": "widgetId",
          "type": "bytes32"
        },
        {
          "internalType": "bytes",
          "name": "input",
          "type": "bytes"
        }
      ],
      "name": "fetch",
      "outputs": [
        {
          "internalType": "string",
          "name": "",
          "type": "string"
        }
      ],
      "stateMutability": "view",
      "type": "function"
    },
    {
      "inputs": [
        {
          "internalType": "bytes32",
          "name": "widgetId",
          "type": "bytes32"
        }
      ],
      "name": "getWidget",
      "outputs": [
        {
          "internalType": "address",
          "name": "widget",
          "type": "address"
        }
      ],
      "stateMutability": "view",
      "type": "function"
    },
    {
      "inputs": [],
      "name": "owner",
      "outputs": [
        {
          "internalType": "address",
          "name": "",
          "type": "address"
        }
      ],
      "stateMutability": "view",
      "type": "function"
    },
    {
      "inputs": [],
      "name": "renounceOwnership",
      "outputs": [],
      "stateMutability": "nonpayable",
      "type": "function"
    },
    {
      "inputs": [
        {
          "internalType": "bytes32",
          "name": "widgetId",
          "type": "bytes32"
        },
        {
          "internalType": "address",
          "name": "widget",
          "type": "address"
        }
      ],
      "name": "setWidget",
      "outputs": [],
      "stateMutability": "nonpayable",
      "type": "function"
    },
    {
      "inputs": [
        {
          "internalType": "uint8",
          "name": "_uint8",
          "type": "uint8"
        }
      ],
      "name": "toByte",
      "outputs": [
        {
          "internalType": "bytes1",
          "name": "",
          "type": "bytes1"
        }
      ],
      "stateMutability": "pure",
      "type": "function"
    },
    {
      "inputs": [
        {
          "internalType": "address",
          "name": "newOwner",
          "type": "address"
        }
      ],
      "name": "transferOwnership",
      "outputs": [],
      "stateMutability": "nonpayable",
      "type": "function"
    }
  ],
  "transactionHash": "0x351cf7d43a51b20f362c4086c652a91f01b6dc65a4aa55f8eb36a63a21b91ee7",
  "args": [],
  "numDeployments": 1,
  "solcInputHash": "bf4d5602c5fbb53fc064060f0a53a702",
  "bytecode": "0x608060405234801561001057600080fd5b5061001a3361001f565b61006f565b600080546001600160a01b038381166001600160a01b0319831681178455604051919092169283917f8be0079c531659141344cd1fd0a4f28419497f9722a3daafe3b4186f6b6457e09190a35050565b61072b8061007e6000396000f3fe608060405234801561001057600080fd5b506004361061007d5760003560e01c80638da5cb5b1161005b5780638da5cb5b146100c8578063a86b73f0146100ed578063e0d1850014610119578063f2fde38b1461014257600080fd5b80631045b14e146100825780633a68f5db14610097578063715018a6146100c0575b600080fd5b610095610090366004610459565b610155565b005b6100aa6100a53660046104f4565b61018b565b6040516100b791906105da565b60405180910390f35b610095610270565b6000546001600160a01b03165b6040516001600160a01b0390911681526020016100b7565b6101006100fb3660046105f4565b610284565b6040516001600160f81b031990911681526020016100b7565b6100d5610127366004610617565b6000908152600160205260409020546001600160a01b031690565b610095610150366004610630565b6102b6565b61015d610334565b60009182526001602052604090912080546001600160a01b0319166001600160a01b03909216919091179055565b6000828152600160205260409020546060906001600160a01b03161561023457600083815260016020526040908190205490516318b6fb0f60e11b81526001600160a01b039091169063316df61e906101e89085906004016105da565b600060405180830381865afa158015610205573d6000803e3d6000fd5b505050506040513d6000823e601f3d908101601f1916820160405261022d919081019061064b565b905061026a565b610259604051806040016040528060048152602001636e61646160e01b81525061038e565b506040805160208101909152600081525b92915050565b610278610334565b61028260006103d1565b565b6000600a8260ff1610156102a65761029d8260306106c2565b60f81b92915050565b61029d8260576106c2565b919050565b6102be610334565b6001600160a01b0381166103285760405162461bcd60e51b815260206004820152602660248201527f4f776e61626c653a206e6577206f776e657220697320746865207a65726f206160448201526564647265737360d01b60648201526084015b60405180910390fd5b610331816103d1565b50565b6000546001600160a01b031633146102825760405162461bcd60e51b815260206004820181905260248201527f4f776e61626c653a2063616c6c6572206973206e6f7420746865206f776e6572604482015260640161031f565b610331816040516024016103a291906105da565b60408051601f198184030181529190526020810180516001600160e01b031663104c13eb60e21b179052610421565b600080546001600160a01b038381166001600160a01b0319831681178455604051919092169283917f8be0079c531659141344cd1fd0a4f28419497f9722a3daafe3b4186f6b6457e09190a35050565b80516a636f6e736f6c652e6c6f67602083016000808483855afa5050505050565b80356001600160a01b03811681146102b157600080fd5b6000806040838503121561046c57600080fd5b8235915061047c60208401610442565b90509250929050565b634e487b7160e01b600052604160045260246000fd5b604051601f8201601f1916810167ffffffffffffffff811182821017156104c4576104c4610485565b604052919050565b600067ffffffffffffffff8211156104e6576104e6610485565b50601f01601f191660200190565b6000806040838503121561050757600080fd5b82359150602083013567ffffffffffffffff81111561052557600080fd5b8301601f8101851361053657600080fd5b8035610549610544826104cc565b61049b565b81815286602083850101111561055e57600080fd5b816020840160208301376000602083830101528093505050509250929050565b60005b83811015610599578181015183820152602001610581565b838111156105a8576000848401525b50505050565b600081518084526105c681602086016020860161057e565b601f01601f19169290920160200192915050565b6020815260006105ed60208301846105ae565b9392505050565b60006020828403121561060657600080fd5b813560ff811681146105ed57600080fd5b60006020828403121561062957600080fd5b5035919050565b60006020828403121561064257600080fd5b6105ed82610442565b60006020828403121561065d57600080fd5b815167ffffffffffffffff81111561067457600080fd5b8201601f8101841361068557600080fd5b8051610693610544826104cc565b8181528560208385010111156106a857600080fd5b6106b982602083016020860161057e565b95945050505050565b600060ff821660ff84168060ff038211156106ed57634e487b7160e01b600052601160045260246000fd5b01939250505056fea26469706673582212206ebd8fb72b30e3d83130b78bd23e8156fada41745febb8debd25ef4f12e8302e64736f6c634300080f0033",
  "devdoc": {
    "kind": "dev",
    "methods": {
      "owner()": {
        "details": "Returns the address of the current owner."
      },
      "renounceOwnership()": {
        "details": "Leaves the contract without owner. It will not be possible to call `onlyOwner` functions anymore. Can only be called by the current owner. NOTE: Renouncing ownership will leave the contract without an owner, thereby removing any functionality that is only available to the owner."
      },
      "transferOwnership(address)": {
        "details": "Transfers ownership of the contract to a new account (`newOwner`). Can only be called by the current owner."
      }
    },
    "version": 1
  },
  "userdoc": {
    "kind": "user",
    "methods": {},
    "version": 1
  },
  "storageLayout": {
    "storage": [
      {
        "astId": 3024,
        "contract": "@erc721k/periphery-sol/contracts/svg/SVGRegistry.sol:SVGRegistry",
        "label": "_owner",
        "offset": 0,
        "slot": "0",
        "type": "t_address"
      },
      {
        "astId": 2028,
        "contract": "@erc721k/periphery-sol/contracts/svg/SVGRegistry.sol:SVGRegistry",
        "label": "_modules",
        "offset": 0,
        "slot": "1",
        "type": "t_mapping(t_bytes32,t_address)"
      }
    ],
    "types": {
      "t_address": {
        "encoding": "inplace",
        "label": "address",
        "numberOfBytes": "20"
      },
      "t_bytes32": {
        "encoding": "inplace",
        "label": "bytes32",
        "numberOfBytes": "32"
      },
      "t_mapping(t_bytes32,t_address)": {
        "encoding": "mapping",
        "key": "t_bytes32",
        "label": "mapping(bytes32 => address)",
        "numberOfBytes": "32",
        "value": "t_address"
      }
    }
  }
}