{
  "address": "0x5a350aCe22BA7bCf45Fa45BBCa1E58E601963Fdf",
  "abi": [
    {
      "inputs": [
        {
          "internalType": "string",
          "name": "name",
          "type": "string"
        },
        {
          "internalType": "string",
          "name": "symbol",
          "type": "string"
        },
        {
          "components": [
            {
              "internalType": "string",
              "name": "name",
              "type": "string"
            },
            {
              "internalType": "string",
              "name": "description",
              "type": "string"
            },
            {
              "internalType": "string",
              "name": "image",
              "type": "string"
            },
            {
              "internalType": "string",
              "name": "externalLink",
              "type": "string"
            },
            {
              "internalType": "string",
              "name": "sellerFeeBasisPoints",
              "type": "string"
            },
            {
              "internalType": "string",
              "name": "feeRecipient",
              "type": "string"
            }
          ],
          "internalType": "struct ENounders.ContractURI",
          "name": "contractURI",
          "type": "tuple"
        },
        {
          "internalType": "string",
          "name": "imageURI",
          "type": "string"
        },
        {
          "internalType": "address",
          "name": "_owner",
          "type": "address"
        }
      ],
      "stateMutability": "nonpayable",
      "type": "constructor"
    },
    {
      "anonymous": false,
      "inputs": [
        {
          "indexed": true,
          "internalType": "address",
          "name": "owner",
          "type": "address"
        },
        {
          "indexed": true,
          "internalType": "address",
          "name": "approved",
          "type": "address"
        },
        {
          "indexed": true,
          "internalType": "uint256",
          "name": "tokenId",
          "type": "uint256"
        }
      ],
      "name": "Approval",
      "type": "event"
    },
    {
      "anonymous": false,
      "inputs": [
        {
          "indexed": true,
          "internalType": "address",
          "name": "owner",
          "type": "address"
        },
        {
          "indexed": true,
          "internalType": "address",
          "name": "operator",
          "type": "address"
        },
        {
          "indexed": false,
          "internalType": "bool",
          "name": "approved",
          "type": "bool"
        }
      ],
      "name": "ApprovalForAll",
      "type": "event"
    },
    {
      "anonymous": false,
      "inputs": [
        {
          "indexed": true,
          "internalType": "address",
          "name": "from",
          "type": "address"
        },
        {
          "indexed": true,
          "internalType": "address",
          "name": "to",
          "type": "address"
        },
        {
          "indexed": true,
          "internalType": "uint256",
          "name": "tokenId",
          "type": "uint256"
        }
      ],
      "name": "Transfer",
      "type": "event"
    },
    {
      "inputs": [
        {
          "internalType": "address",
          "name": "to",
          "type": "address"
        },
        {
          "internalType": "uint256",
          "name": "tokenId",
          "type": "uint256"
        }
      ],
      "name": "approve",
      "outputs": [],
      "stateMutability": "nonpayable",
      "type": "function"
    },
    {
      "inputs": [
        {
          "internalType": "address",
          "name": "owner",
          "type": "address"
        }
      ],
      "name": "balanceOf",
      "outputs": [
        {
          "internalType": "uint256",
          "name": "",
          "type": "uint256"
        }
      ],
      "stateMutability": "view",
      "type": "function"
    },
    {
      "inputs": [],
      "name": "contractURI",
      "outputs": [
        {
          "internalType": "string",
          "name": "uri",
          "type": "string"
        }
      ],
      "stateMutability": "view",
      "type": "function"
    },
    {
      "inputs": [
        {
          "internalType": "uint256",
          "name": "tokenId",
          "type": "uint256"
        }
      ],
      "name": "getApproved",
      "outputs": [
        {
          "internalType": "address",
          "name": "",
          "type": "address"
        }
      ],
      "stateMutability": "view",
      "type": "function"
    },
    {
      "inputs": [
        {
          "internalType": "address",
          "name": "owner",
          "type": "address"
        },
        {
          "internalType": "address",
          "name": "operator",
          "type": "address"
        }
      ],
      "name": "isApprovedForAll",
      "outputs": [
        {
          "internalType": "bool",
          "name": "",
          "type": "bool"
        }
      ],
      "stateMutability": "view",
      "type": "function"
    },
    {
      "inputs": [],
      "name": "name",
      "outputs": [
        {
          "internalType": "string",
          "name": "",
          "type": "string"
        }
      ],
      "stateMutability": "view",
      "type": "function"
    },
    {
      "inputs": [
        {
          "internalType": "uint256",
          "name": "tokenId",
          "type": "uint256"
        }
      ],
      "name": "ownerOf",
      "outputs": [
        {
          "internalType": "address",
          "name": "",
          "type": "address"
        }
      ],
      "stateMutability": "view",
      "type": "function"
    },
    {
      "inputs": [
        {
          "internalType": "address",
          "name": "from",
          "type": "address"
        },
        {
          "internalType": "address",
          "name": "to",
          "type": "address"
        },
        {
          "internalType": "uint256",
          "name": "tokenId",
          "type": "uint256"
        }
      ],
      "name": "safeTransferFrom",
      "outputs": [],
      "stateMutability": "nonpayable",
      "type": "function"
    },
    {
      "inputs": [
        {
          "internalType": "address",
          "name": "from",
          "type": "address"
        },
        {
          "internalType": "address",
          "name": "to",
          "type": "address"
        },
        {
          "internalType": "uint256",
          "name": "tokenId",
          "type": "uint256"
        },
        {
          "internalType": "bytes",
          "name": "_data",
          "type": "bytes"
        }
      ],
      "name": "safeTransferFrom",
      "outputs": [],
      "stateMutability": "nonpayable",
      "type": "function"
    },
    {
      "inputs": [
        {
          "internalType": "address",
          "name": "operator",
          "type": "address"
        },
        {
          "internalType": "bool",
          "name": "approved",
          "type": "bool"
        }
      ],
      "name": "setApprovalForAll",
      "outputs": [],
      "stateMutability": "nonpayable",
      "type": "function"
    },
    {
      "inputs": [
        {
          "internalType": "bytes4",
          "name": "interfaceId",
          "type": "bytes4"
        }
      ],
      "name": "supportsInterface",
      "outputs": [
        {
          "internalType": "bool",
          "name": "",
          "type": "bool"
        }
      ],
      "stateMutability": "view",
      "type": "function"
    },
    {
      "inputs": [],
      "name": "symbol",
      "outputs": [
        {
          "internalType": "string",
          "name": "",
          "type": "string"
        }
      ],
      "stateMutability": "view",
      "type": "function"
    },
    {
      "inputs": [
        {
          "internalType": "uint256",
          "name": "tokenId",
          "type": "uint256"
        }
      ],
      "name": "tokenURI",
      "outputs": [
        {
          "internalType": "string",
          "name": "uri",
          "type": "string"
        }
      ],
      "stateMutability": "view",
      "type": "function"
    },
    {
      "inputs": [
        {
          "internalType": "address",
          "name": "from",
          "type": "address"
        },
        {
          "internalType": "address",
          "name": "to",
          "type": "address"
        },
        {
          "internalType": "uint256",
          "name": "tokenId",
          "type": "uint256"
        }
      ],
      "name": "transferFrom",
      "outputs": [],
      "stateMutability": "nonpayable",
      "type": "function"
    }
  ],
  "transactionHash": "0x2fc03fd858ab66f3a7e3879e212288c076b5ae1e6e566c42d9320adf35fb69dd",
  "args": [
    "enoeno",
    "ENO",
    {
      "name": "enoeno",
      "description": "enoeno.",
      "image": "",
      "externalLink": "https://kames.me",
      "sellerFeeBasisPoints": "0",
      "feeRecipient": "0x0000000000000000000000000000000000000000"
    },
    "https://gateway.pinata.cloud/ipfs/QmcsfEQmRCg5bPVuYoSpGxjfQfn3iDxpg3eZLc1j3n5oTS",
    "0x9342d17D9161d642F73aE9Feebb627F46F1029C5"
  ],
  "numDeployments": 2,
  "solcInputHash": "8f7e8aae4a8b51c633a3584a1f777ab6",
  "bytecode": "0x60806040523480156200001157600080fd5b5060405162001ded38038062001ded833981016040819052620000349162000381565b84846000620000448382620005d1565b506001620000538282620005d1565b5050835184915060079081906200006b9082620005d1565b5060208201516001820190620000829082620005d1565b5060408201516002820190620000999082620005d1565b5060608201516003820190620000b09082620005d1565b5060808201516004820190620000c79082620005d1565b5060a08201516005820190620000de9082620005d1565b5060069150620000f190508382620005d1565b50620000ff8160016200010a565b5050505050620006c4565b6001600160a01b038216620001665760405162461bcd60e51b815260206004820181905260248201527f4552433732313a206d696e7420746f20746865207a65726f206164647265737360448201526064015b60405180910390fd5b6000818152600260205260409020546001600160a01b031615620001cd5760405162461bcd60e51b815260206004820152601c60248201527f4552433732313a20746f6b656e20616c7265616479206d696e7465640000000060448201526064016200015d565b6001600160a01b0382166000908152600360205260408120805460019290620001f89084906200069d565b909155505060008181526002602052604080822080546001600160a01b0319166001600160a01b03861690811790915590518392907fddf252ad1be2c89b69c2b068fc378daa952ba7f163c4a11628f55a4df523b3ef908290a45050565b505050565b634e487b7160e01b600052604160045260246000fd5b60405160c081016001600160401b03811182821017156200029657620002966200025b565b60405290565b604051601f8201601f191681016001600160401b0381118282101715620002c757620002c76200025b565b604052919050565b600082601f830112620002e157600080fd5b81516001600160401b03811115620002fd57620002fd6200025b565b602062000313601f8301601f191682016200029c565b82815285828487010111156200032857600080fd5b60005b83811015620003485785810183015182820184015282016200032b565b838111156200035a5760008385840101525b5095945050505050565b80516001600160a01b03811681146200037c57600080fd5b919050565b600080600080600060a086880312156200039a57600080fd5b85516001600160401b0380821115620003b257600080fd5b620003c089838a01620002cf565b96506020880151915080821115620003d757600080fd5b620003e589838a01620002cf565b95506040880151915080821115620003fc57600080fd5b9087019060c0828a0312156200041157600080fd5b6200041b62000271565b8251828111156200042b57600080fd5b620004398b828601620002cf565b8252506020830151828111156200044f57600080fd5b6200045d8b828601620002cf565b6020830152506040830151828111156200047657600080fd5b620004848b828601620002cf565b6040830152506060830151828111156200049d57600080fd5b620004ab8b828601620002cf565b606083015250608083015182811115620004c457600080fd5b620004d28b828601620002cf565b60808301525060a083015182811115620004eb57600080fd5b620004f98b828601620002cf565b60a08301525060608901519095509150808211156200051757600080fd5b506200052688828901620002cf565b925050620005376080870162000364565b90509295509295909350565b600181811c908216806200055857607f821691505b6020821081036200057957634e487b7160e01b600052602260045260246000fd5b50919050565b601f8211156200025657600081815260208120601f850160051c81016020861015620005a85750805b601f850160051c820191505b81811015620005c957828155600101620005b4565b505050505050565b81516001600160401b03811115620005ed57620005ed6200025b565b6200060581620005fe845462000543565b846200057f565b602080601f8311600181146200063d5760008415620006245750858301515b600019600386901b1c1916600185901b178555620005c9565b600085815260208120601f198616915b828110156200066e578886015182559484019460019091019084016200064d565b50858210156200068d5787850151600019600388901b60f8161c191681555b5050505050600190811b01905550565b60008219821115620006bf57634e487b7160e01b600052601160045260246000fd5b500190565b61171980620006d46000396000f3fe608060405234801561001057600080fd5b50600436106100ea5760003560e01c806370a082311161008c578063b88d4fde11610066578063b88d4fde146101e1578063c87b56dd146101f4578063e8a3d48514610207578063e985e9c51461020f57600080fd5b806370a08231146101a557806395d89b41146101c6578063a22cb465146101ce57600080fd5b8063095ea7b3116100c8578063095ea7b31461015757806323b872dd1461016c57806342842e0e1461017f5780636352211e1461019257600080fd5b806301ffc9a7146100ef57806306fdde0314610117578063081812fc1461012c575b600080fd5b6101026100fd366004610e0e565b61024b565b60405190151581526020015b60405180910390f35b61011f61029d565b60405161010e9190610e8a565b61013f61013a366004610e9d565b61032f565b6040516001600160a01b03909116815260200161010e565b61016a610165366004610ed2565b6103c9565b005b61016a61017a366004610efc565b6104de565b61016a61018d366004610efc565b61050f565b61013f6101a0366004610e9d565b61052a565b6101b86101b3366004610f38565b6105a1565b60405190815260200161010e565b61011f610628565b61016a6101dc366004610f53565b610637565b61016a6101ef366004610fa5565b610646565b61011f610202366004610e9d565b61067e565b61011f610715565b61010261021d366004611081565b6001600160a01b03918216600090815260056020908152604080832093909416825291909152205460ff1690565b60006001600160e01b031982166380ac58cd60e01b148061027c57506001600160e01b03198216635b5e139f60e01b145b8061029757506301ffc9a760e01b6001600160e01b03198316145b92915050565b6060600080546102ac906110b4565b80601f01602080910402602001604051908101604052809291908181526020018280546102d8906110b4565b80156103255780601f106102fa57610100808354040283529160200191610325565b820191906000526020600020905b81548152906001019060200180831161030857829003601f168201915b5050505050905090565b6000818152600260205260408120546001600160a01b03166103ad5760405162461bcd60e51b815260206004820152602c60248201527f4552433732313a20617070726f76656420717565727920666f72206e6f6e657860448201526b34b9ba32b73a103a37b5b2b760a11b60648201526084015b60405180910390fd5b506000908152600460205260409020546001600160a01b031690565b60006103d48261052a565b9050806001600160a01b0316836001600160a01b0316036104415760405162461bcd60e51b815260206004820152602160248201527f4552433732313a20617070726f76616c20746f2063757272656e74206f776e656044820152603960f91b60648201526084016103a4565b336001600160a01b038216148061045d575061045d813361021d565b6104cf5760405162461bcd60e51b815260206004820152603860248201527f4552433732313a20617070726f76652063616c6c6572206973206e6f74206f7760448201527f6e6572206e6f7220617070726f76656420666f7220616c6c000000000000000060648201526084016103a4565b6104d98383610761565b505050565b6104e833826107cf565b6105045760405162461bcd60e51b81526004016103a4906110ee565b6104d98383836108c6565b6104d983838360405180602001604052806000815250610646565b6000818152600260205260408120546001600160a01b0316806102975760405162461bcd60e51b815260206004820152602960248201527f4552433732313a206f776e657220717565727920666f72206e6f6e657869737460448201526832b73a103a37b5b2b760b91b60648201526084016103a4565b60006001600160a01b03821661060c5760405162461bcd60e51b815260206004820152602a60248201527f4552433732313a2062616c616e636520717565727920666f7220746865207a65604482015269726f206164647265737360b01b60648201526084016103a4565b506001600160a01b031660009081526003602052604090205490565b6060600180546102ac906110b4565b610642338383610a62565b5050565b61065033836107cf565b61066c5760405162461bcd60e51b81526004016103a4906110ee565b61067884848484610b30565b50505050565b60606106ef60066106ca604051806040016040528060078152602001660dcdeeadcd2e6d60cb1b815250604051806040016040528060048152602001637472756560e01b815250610b63565b6040516020016106db9291906111f8565b604051602081830303815290604052610b8f565b6040516020016106ff919061133f565b6040516020818303038152906040529050919050565b60405160609061073d906106db90600790600890600990600a90600b90600c90602001611384565b60405160200161074d919061133f565b604051602081830303815290604052905090565b600081815260046020526040902080546001600160a01b0319166001600160a01b03841690811790915581906107968261052a565b6001600160a01b03167f8c5be1e5ebec7d5bd14f71427d1e84f3dd0314c0f7b2291e5b200ac8c7c3b92560405160405180910390a45050565b6000818152600260205260408120546001600160a01b03166108485760405162461bcd60e51b815260206004820152602c60248201527f4552433732313a206f70657261746f7220717565727920666f72206e6f6e657860448201526b34b9ba32b73a103a37b5b2b760a11b60648201526084016103a4565b60006108538361052a565b9050806001600160a01b0316846001600160a01b0316148061089a57506001600160a01b0380821660009081526005602090815260408083209388168352929052205460ff165b806108be5750836001600160a01b03166108b38461032f565b6001600160a01b0316145b949350505050565b826001600160a01b03166108d98261052a565b6001600160a01b03161461093d5760405162461bcd60e51b815260206004820152602560248201527f4552433732313a207472616e736665722066726f6d20696e636f72726563742060448201526437bbb732b960d91b60648201526084016103a4565b6001600160a01b03821661099f5760405162461bcd60e51b8152602060048201526024808201527f4552433732313a207472616e7366657220746f20746865207a65726f206164646044820152637265737360e01b60648201526084016103a4565b6109aa600082610761565b6001600160a01b03831660009081526003602052604081208054600192906109d3908490611504565b90915550506001600160a01b0382166000908152600360205260408120805460019290610a0190849061151b565b909155505060008181526002602052604080822080546001600160a01b0319166001600160a01b0386811691821790925591518493918716917fddf252ad1be2c89b69c2b068fc378daa952ba7f163c4a11628f55a4df523b3ef91a4505050565b816001600160a01b0316836001600160a01b031603610ac35760405162461bcd60e51b815260206004820152601960248201527f4552433732313a20617070726f766520746f2063616c6c65720000000000000060448201526064016103a4565b6001600160a01b03838116600081815260056020908152604080832094871680845294825291829020805460ff191686151590811790915591519182527f17307eab39ab6107e8899845ad3d59bd9653f200f220920489ca2b5937696c31910160405180910390a3505050565b610b3b8484846108c6565b610b4784848484610cf4565b6106785760405162461bcd60e51b81526004016103a490611533565b60608282604051602001610b78929190611585565b604051602081830303815290604052905092915050565b60608151600003610bae57505060408051602081019091526000815290565b60006040518060600160405280604081526020016116a46040913990506000600384516002610bdd919061151b565b610be79190611608565b610bf290600461162a565b90506000610c0182602061151b565b67ffffffffffffffff811115610c1957610c19610f8f565b6040519080825280601f01601f191660200182016040528015610c43576020820181803683370190505b509050818152600183018586518101602084015b81831015610caf576003830192508251603f8160121c168501518253600182019150603f81600c1c168501518253600182019150603f8160061c168501518253600182019150603f8116850151825350600101610c57565b600389510660018114610cc95760028114610cda57610ce6565b613d3d60f01b600119830152610ce6565b603d60f81b6000198301525b509398975050505050505050565b60006001600160a01b0384163b15610dea57604051630a85bd0160e11b81526001600160a01b0385169063150b7a0290610d38903390899088908890600401611649565b6020604051808303816000875af1925050508015610d73575060408051601f3d908101601f19168201909252610d7091810190611686565b60015b610dd0573d808015610da1576040519150601f19603f3d011682016040523d82523d6000602084013e610da6565b606091505b508051600003610dc85760405162461bcd60e51b81526004016103a490611533565b805181602001fd5b6001600160e01b031916630a85bd0160e11b1490506108be565b506001949350505050565b6001600160e01b031981168114610e0b57600080fd5b50565b600060208284031215610e2057600080fd5b8135610e2b81610df5565b9392505050565b60005b83811015610e4d578181015183820152602001610e35565b838111156106785750506000910152565b60008151808452610e76816020860160208601610e32565b601f01601f19169290920160200192915050565b602081526000610e2b6020830184610e5e565b600060208284031215610eaf57600080fd5b5035919050565b80356001600160a01b0381168114610ecd57600080fd5b919050565b60008060408385031215610ee557600080fd5b610eee83610eb6565b946020939093013593505050565b600080600060608486031215610f1157600080fd5b610f1a84610eb6565b9250610f2860208501610eb6565b9150604084013590509250925092565b600060208284031215610f4a57600080fd5b610e2b82610eb6565b60008060408385031215610f6657600080fd5b610f6f83610eb6565b915060208301358015158114610f8457600080fd5b809150509250929050565b634e487b7160e01b600052604160045260246000fd5b60008060008060808587031215610fbb57600080fd5b610fc485610eb6565b9350610fd260208601610eb6565b925060408501359150606085013567ffffffffffffffff80821115610ff657600080fd5b818701915087601f83011261100a57600080fd5b81358181111561101c5761101c610f8f565b604051601f8201601f19908116603f0116810190838211818310171561104457611044610f8f565b816040528281528a602084870101111561105d57600080fd5b82602086016020830137600060208483010152809550505050505092959194509250565b6000806040838503121561109457600080fd5b61109d83610eb6565b91506110ab60208401610eb6565b90509250929050565b600181811c908216806110c857607f821691505b6020821081036110e857634e487b7160e01b600052602260045260246000fd5b50919050565b60208082526031908201527f4552433732313a207472616e736665722063616c6c6572206973206e6f74206f6040820152701ddb995c881b9bdc88185c1c1c9bdd9959607a1b606082015260800190565b8054600090600181811c908083168061115957607f831692505b6020808410820361117a57634e487b7160e01b600052602260045260246000fd5b81801561118e57600181146111a3576111d0565b60ff19861689528415158502890196506111d0565b60008881526020902060005b868110156111c85781548b8201529085019083016111af565b505084890196505b50505050505092915050565b600081516111ee818560208601610e32565b9290920192915050565b673d913730b6b2911d60c11b8152601160f91b60088201527f466f756e64696e6720654e6f756e657273202d20546865204561726c79204e6f600982015265756e6465727360d01b602982015261088b60f21b602f8201526d113232b9b1b934b83a34b7b7111d60911b6031820152601160f91b603f8201527f4c696d697465642045646974696f6e20312f3120636f6d6d656d6f726174697660408201527f6520636f6c6c65637461626c65206f66206561726c7920654e6f756e64657273606082015260006080820161088b60f21b8152671134b6b0b3b2911d60c11b6002820152601160f91b600a8201526112f3600b82018661113f565b61088b60f21b815290506e2261747472696275746573223a205b60881b600282015261132260118201856111dc565b605d60f81b8152607d60f81b600182015260020195945050505050565b7f646174613a6170706c69636174696f6e2f6a736f6e3b6261736536342c00000081526000825161137781601d850160208701610e32565b91909101601d0192915050565b673d913730b6b2911d60c11b8152601160f91b600882015260006113ab600983018961113f565b61088b60f21b815260026113d18183016d113232b9b1b934b83a34b7b7111d60911b9052565b601160f91b60108301526113e8601183018a61113f565b61088b60f21b81529150671134b6b0b3b2911d60c11b82820152601160f91b600a830152611419600b83018961113f565b61088b60f21b815291506e1132bc3a32b93730b62634b735911d60891b82820152601160f91b6011830152611451601283018861113f565b61088b60f21b815291507f2273656c6c65724665654261736973506f696e7473223a00000000000000000082820152601160f91b6019830152611497601a83018761113f565b61088b60f21b815291506e113332b2a932b1b4b834b2b73a111d60891b82820152601160f91b60118301526114cf601283018661113f565b601160f91b8152607d60f81b6001820152019998505050505050505050565b634e487b7160e01b600052601160045260246000fd5b600082821015611516576115166114ee565b500390565b6000821982111561152e5761152e6114ee565b500190565b60208082526032908201527f4552433732313a207472616e7366657220746f206e6f6e20455243373231526560408201527131b2b4bb32b91034b6b83632b6b2b73a32b960711b606082015260800190565b6e3d913a3930b4ba2fba3cb832911d1160891b815282516000906115b081600f850160208801610e32565b61088b60f21b600f9184019182015267113b30b63ab2911d60c11b6011820152601160f91b601982015283516115ed81601a840160208801610e32565b61227d60f01b601a9290910191820152601c01949350505050565b60008261162557634e487b7160e01b600052601260045260246000fd5b500490565b6000816000190483118215151615611644576116446114ee565b500290565b6001600160a01b038581168252841660208201526040810183905260806060820181905260009061167c90830184610e5e565b9695505050505050565b60006020828403121561169857600080fd5b8151610e2b81610df556fe4142434445464748494a4b4c4d4e4f505152535455565758595a6162636465666768696a6b6c6d6e6f707172737475767778797a303132333435363738392b2fa26469706673582212201ea8750d54dd0b43a2a3d922a4cf0fac685896b18ab6e14c008671d4a1aa29e864736f6c634300080f0033",
  "devdoc": {
    "author": "Kames Geraghty",
    "kind": "dev",
    "methods": {
      "approve(address,uint256)": {
        "details": "See {IERC721-approve}."
      },
      "balanceOf(address)": {
        "details": "See {IERC721-balanceOf}."
      },
      "constructor": {
        "params": {
          "contractURI": "ContractURI - Contract URI for the token",
          "imageURI": "string - Image URI for the token",
          "name": "string - Name of ERC721 token",
          "symbol": "string - Symbol of ERC721 token"
        }
      },
      "getApproved(uint256)": {
        "details": "See {IERC721-getApproved}."
      },
      "isApprovedForAll(address,address)": {
        "details": "See {IERC721-isApprovedForAll}."
      },
      "name()": {
        "details": "See {IERC721Metadata-name}."
      },
      "ownerOf(uint256)": {
        "details": "See {IERC721-ownerOf}."
      },
      "safeTransferFrom(address,address,uint256)": {
        "details": "See {IERC721-safeTransferFrom}."
      },
      "safeTransferFrom(address,address,uint256,bytes)": {
        "details": "See {IERC721-safeTransferFrom}."
      },
      "setApprovalForAll(address,bool)": {
        "details": "See {IERC721-setApprovalForAll}."
      },
      "supportsInterface(bytes4)": {
        "details": "See {IERC165-supportsInterface}."
      },
      "symbol()": {
        "details": "See {IERC721Metadata-symbol}."
      },
      "tokenURI(uint256)": {
        "details": "See {IERC721Metadata-tokenURI}."
      },
      "transferFrom(address,address,uint256)": {
        "details": "See {IERC721-transferFrom}."
      }
    },
    "title": "eNounders",
    "version": 1
  },
  "userdoc": {
    "kind": "user",
    "methods": {
      "constructor": {
        "notice": "ENounders Construction"
      }
    },
    "notice": "Limited Edition commemorative tokens for the Ethereum Noun System.",
    "version": 1
  },
  "storageLayout": {
    "storage": [
      {
        "astId": 130,
        "contract": "contracts/ENounders/ENounders.sol:ENounders",
        "label": "_name",
        "offset": 0,
        "slot": "0",
        "type": "t_string_storage"
      },
      {
        "astId": 132,
        "contract": "contracts/ENounders/ENounders.sol:ENounders",
        "label": "_symbol",
        "offset": 0,
        "slot": "1",
        "type": "t_string_storage"
      },
      {
        "astId": 136,
        "contract": "contracts/ENounders/ENounders.sol:ENounders",
        "label": "_owners",
        "offset": 0,
        "slot": "2",
        "type": "t_mapping(t_uint256,t_address)"
      },
      {
        "astId": 140,
        "contract": "contracts/ENounders/ENounders.sol:ENounders",
        "label": "_balances",
        "offset": 0,
        "slot": "3",
        "type": "t_mapping(t_address,t_uint256)"
      },
      {
        "astId": 144,
        "contract": "contracts/ENounders/ENounders.sol:ENounders",
        "label": "_tokenApprovals",
        "offset": 0,
        "slot": "4",
        "type": "t_mapping(t_uint256,t_address)"
      },
      {
        "astId": 150,
        "contract": "contracts/ENounders/ENounders.sol:ENounders",
        "label": "_operatorApprovals",
        "offset": 0,
        "slot": "5",
        "type": "t_mapping(t_address,t_mapping(t_address,t_bool))"
      },
      {
        "astId": 1815,
        "contract": "contracts/ENounders/ENounders.sol:ENounders",
        "label": "_imageURI",
        "offset": 0,
        "slot": "6",
        "type": "t_string_storage"
      },
      {
        "astId": 1818,
        "contract": "contracts/ENounders/ENounders.sol:ENounders",
        "label": "_contractURI",
        "offset": 0,
        "slot": "7",
        "type": "t_struct(ContractURI)1831_storage"
      }
    ],
    "types": {
      "t_address": {
        "encoding": "inplace",
        "label": "address",
        "numberOfBytes": "20"
      },
      "t_bool": {
        "encoding": "inplace",
        "label": "bool",
        "numberOfBytes": "1"
      },
      "t_mapping(t_address,t_bool)": {
        "encoding": "mapping",
        "key": "t_address",
        "label": "mapping(address => bool)",
        "numberOfBytes": "32",
        "value": "t_bool"
      },
      "t_mapping(t_address,t_mapping(t_address,t_bool))": {
        "encoding": "mapping",
        "key": "t_address",
        "label": "mapping(address => mapping(address => bool))",
        "numberOfBytes": "32",
        "value": "t_mapping(t_address,t_bool)"
      },
      "t_mapping(t_address,t_uint256)": {
        "encoding": "mapping",
        "key": "t_address",
        "label": "mapping(address => uint256)",
        "numberOfBytes": "32",
        "value": "t_uint256"
      },
      "t_mapping(t_uint256,t_address)": {
        "encoding": "mapping",
        "key": "t_uint256",
        "label": "mapping(uint256 => address)",
        "numberOfBytes": "32",
        "value": "t_address"
      },
      "t_string_storage": {
        "encoding": "bytes",
        "label": "string",
        "numberOfBytes": "32"
      },
      "t_struct(ContractURI)1831_storage": {
        "encoding": "inplace",
        "label": "struct ENounders.ContractURI",
        "members": [
          {
            "astId": 1820,
            "contract": "contracts/ENounders/ENounders.sol:ENounders",
            "label": "name",
            "offset": 0,
            "slot": "0",
            "type": "t_string_storage"
          },
          {
            "astId": 1822,
            "contract": "contracts/ENounders/ENounders.sol:ENounders",
            "label": "description",
            "offset": 0,
            "slot": "1",
            "type": "t_string_storage"
          },
          {
            "astId": 1824,
            "contract": "contracts/ENounders/ENounders.sol:ENounders",
            "label": "image",
            "offset": 0,
            "slot": "2",
            "type": "t_string_storage"
          },
          {
            "astId": 1826,
            "contract": "contracts/ENounders/ENounders.sol:ENounders",
            "label": "externalLink",
            "offset": 0,
            "slot": "3",
            "type": "t_string_storage"
          },
          {
            "astId": 1828,
            "contract": "contracts/ENounders/ENounders.sol:ENounders",
            "label": "sellerFeeBasisPoints",
            "offset": 0,
            "slot": "4",
            "type": "t_string_storage"
          },
          {
            "astId": 1830,
            "contract": "contracts/ENounders/ENounders.sol:ENounders",
            "label": "feeRecipient",
            "offset": 0,
            "slot": "5",
            "type": "t_string_storage"
          }
        ],
        "numberOfBytes": "192"
      },
      "t_uint256": {
        "encoding": "inplace",
        "label": "uint256",
        "numberOfBytes": "32"
      }
    }
  }
}