{
  "_format": "hh-sol-artifact-1",
  "contractName": "Example",
  "sourceName": "@erc721k/core-sol/contracts/examples/Example.sol",
  "abi": [
    {
      "inputs": [
        {
          "internalType": "string",
          "name": "name",
          "type": "string"
        },
        {
          "internalType": "string",
          "name": "symbol",
          "type": "string"
        },
        {
          "internalType": "address",
          "name": "erc721Storage",
          "type": "address"
        }
      ],
      "stateMutability": "nonpayable",
      "type": "constructor"
    },
    {
      "anonymous": false,
      "inputs": [
        {
          "indexed": true,
          "internalType": "address",
          "name": "owner",
          "type": "address"
        },
        {
          "indexed": true,
          "internalType": "address",
          "name": "approved",
          "type": "address"
        },
        {
          "indexed": true,
          "internalType": "uint256",
          "name": "tokenId",
          "type": "uint256"
        }
      ],
      "name": "Approval",
      "type": "event"
    },
    {
      "anonymous": false,
      "inputs": [
        {
          "indexed": true,
          "internalType": "address",
          "name": "owner",
          "type": "address"
        },
        {
          "indexed": true,
          "internalType": "address",
          "name": "operator",
          "type": "address"
        },
        {
          "indexed": false,
          "internalType": "bool",
          "name": "approved",
          "type": "bool"
        }
      ],
      "name": "ApprovalForAll",
      "type": "event"
    },
    {
      "anonymous": false,
      "inputs": [
        {
          "indexed": false,
          "internalType": "address",
          "name": "erc721Storage",
          "type": "address"
        }
      ],
      "name": "ERC721StorageUpdated",
      "type": "event"
    },
    {
      "anonymous": false,
      "inputs": [
        {
          "indexed": true,
          "internalType": "address",
          "name": "previousOwner",
          "type": "address"
        },
        {
          "indexed": true,
          "internalType": "address",
          "name": "newOwner",
          "type": "address"
        }
      ],
      "name": "OwnershipTransferred",
      "type": "event"
    },
    {
      "anonymous": false,
      "inputs": [
        {
          "indexed": true,
          "internalType": "address",
          "name": "from",
          "type": "address"
        },
        {
          "indexed": true,
          "internalType": "address",
          "name": "to",
          "type": "address"
        },
        {
          "indexed": true,
          "internalType": "uint256",
          "name": "tokenId",
          "type": "uint256"
        }
      ],
      "name": "Transfer",
      "type": "event"
    },
    {
      "inputs": [
        {
          "internalType": "address",
          "name": "to",
          "type": "address"
        },
        {
          "internalType": "uint256",
          "name": "tokenId",
          "type": "uint256"
        }
      ],
      "name": "approve",
      "outputs": [],
      "stateMutability": "nonpayable",
      "type": "function"
    },
    {
      "inputs": [
        {
          "internalType": "address",
          "name": "owner",
          "type": "address"
        }
      ],
      "name": "balanceOf",
      "outputs": [
        {
          "internalType": "uint256",
          "name": "",
          "type": "uint256"
        }
      ],
      "stateMutability": "view",
      "type": "function"
    },
    {
      "inputs": [],
      "name": "contractURI",
      "outputs": [
        {
          "internalType": "string",
          "name": "",
          "type": "string"
        }
      ],
      "stateMutability": "view",
      "type": "function"
    },
    {
      "inputs": [
        {
          "internalType": "uint256",
          "name": "tokenId",
          "type": "uint256"
        }
      ],
      "name": "getApproved",
      "outputs": [
        {
          "internalType": "address",
          "name": "",
          "type": "address"
        }
      ],
      "stateMutability": "view",
      "type": "function"
    },
    {
      "inputs": [],
      "name": "getERC721Storage",
      "outputs": [
        {
          "internalType": "address",
          "name": "",
          "type": "address"
        }
      ],
      "stateMutability": "view",
      "type": "function"
    },
    {
      "inputs": [
        {
          "internalType": "address",
          "name": "owner",
          "type": "address"
        },
        {
          "internalType": "address",
          "name": "operator",
          "type": "address"
        }
      ],
      "name": "isApprovedForAll",
      "outputs": [
        {
          "internalType": "bool",
          "name": "",
          "type": "bool"
        }
      ],
      "stateMutability": "view",
      "type": "function"
    },
    {
      "inputs": [
        {
          "internalType": "address",
          "name": "user",
          "type": "address"
        }
      ],
      "name": "isOwner",
      "outputs": [
        {
          "internalType": "bool",
          "name": "",
          "type": "bool"
        }
      ],
      "stateMutability": "view",
      "type": "function"
    },
    {
      "inputs": [],
      "name": "name",
      "outputs": [
        {
          "internalType": "string",
          "name": "",
          "type": "string"
        }
      ],
      "stateMutability": "view",
      "type": "function"
    },
    {
      "inputs": [],
      "name": "owner",
      "outputs": [
        {
          "internalType": "address",
          "name": "",
          "type": "address"
        }
      ],
      "stateMutability": "view",
      "type": "function"
    },
    {
      "inputs": [
        {
          "internalType": "uint256",
          "name": "tokenId",
          "type": "uint256"
        }
      ],
      "name": "ownerOf",
      "outputs": [
        {
          "internalType": "address",
          "name": "",
          "type": "address"
        }
      ],
      "stateMutability": "view",
      "type": "function"
    },
    {
      "inputs": [
        {
          "internalType": "bytes",
          "name": "input",
          "type": "bytes"
        }
      ],
      "name": "preview",
      "outputs": [
        {
          "internalType": "string",
          "name": "",
          "type": "string"
        }
      ],
      "stateMutability": "view",
      "type": "function"
    },
    {
      "inputs": [],
      "name": "renounceOwnership",
      "outputs": [],
      "stateMutability": "nonpayable",
      "type": "function"
    },
    {
      "inputs": [
        {
          "internalType": "address",
          "name": "from",
          "type": "address"
        },
        {
          "internalType": "address",
          "name": "to",
          "type": "address"
        },
        {
          "internalType": "uint256",
          "name": "tokenId",
          "type": "uint256"
        }
      ],
      "name": "safeTransferFrom",
      "outputs": [],
      "stateMutability": "nonpayable",
      "type": "function"
    },
    {
      "inputs": [
        {
          "internalType": "address",
          "name": "from",
          "type": "address"
        },
        {
          "internalType": "address",
          "name": "to",
          "type": "address"
        },
        {
          "internalType": "uint256",
          "name": "tokenId",
          "type": "uint256"
        },
        {
          "internalType": "bytes",
          "name": "data",
          "type": "bytes"
        }
      ],
      "name": "safeTransferFrom",
      "outputs": [],
      "stateMutability": "nonpayable",
      "type": "function"
    },
    {
      "inputs": [
        {
          "internalType": "address",
          "name": "operator",
          "type": "address"
        },
        {
          "internalType": "bool",
          "name": "approved",
          "type": "bool"
        }
      ],
      "name": "setApprovalForAll",
      "outputs": [],
      "stateMutability": "nonpayable",
      "type": "function"
    },
    {
      "inputs": [
        {
          "internalType": "address",
          "name": "erc721Storage",
          "type": "address"
        }
      ],
      "name": "setStorage",
      "outputs": [],
      "stateMutability": "nonpayable",
      "type": "function"
    },
    {
      "inputs": [
        {
          "internalType": "bytes4",
          "name": "interfaceId",
          "type": "bytes4"
        }
      ],
      "name": "supportsInterface",
      "outputs": [
        {
          "internalType": "bool",
          "name": "",
          "type": "bool"
        }
      ],
      "stateMutability": "view",
      "type": "function"
    },
    {
      "inputs": [],
      "name": "symbol",
      "outputs": [
        {
          "internalType": "string",
          "name": "",
          "type": "string"
        }
      ],
      "stateMutability": "view",
      "type": "function"
    },
    {
      "inputs": [
        {
          "internalType": "uint256",
          "name": "tokenId",
          "type": "uint256"
        }
      ],
      "name": "tokenURI",
      "outputs": [
        {
          "internalType": "string",
          "name": "",
          "type": "string"
        }
      ],
      "stateMutability": "view",
      "type": "function"
    },
    {
      "inputs": [],
      "name": "totalSupply",
      "outputs": [
        {
          "internalType": "uint256",
          "name": "",
          "type": "uint256"
        }
      ],
      "stateMutability": "view",
      "type": "function"
    },
    {
      "inputs": [
        {
          "internalType": "address",
          "name": "from",
          "type": "address"
        },
        {
          "internalType": "address",
          "name": "to",
          "type": "address"
        },
        {
          "internalType": "uint256",
          "name": "tokenId",
          "type": "uint256"
        }
      ],
      "name": "transferFrom",
      "outputs": [],
      "stateMutability": "nonpayable",
      "type": "function"
    },
    {
      "inputs": [
        {
          "internalType": "address",
          "name": "newOwner",
          "type": "address"
        }
      ],
      "name": "transferOwnership",
      "outputs": [],
      "stateMutability": "nonpayable",
      "type": "function"
    }
  ],
  "bytecode": "0x60806040523480156200001157600080fd5b5060405162001b0538038062001b058339810160408190526200003491620001c2565b82828282826000620000478382620002de565b506001620000568282620002de565b505050620000736200006d6200009f60201b60201c565b620000a3565b600880546001600160a01b0319166001600160a01b039290921691909117905550620003aa9350505050565b3390565b600680546001600160a01b038381166001600160a01b0319831681179093556040519116919082907f8be0079c531659141344cd1fd0a4f28419497f9722a3daafe3b4186f6b6457e090600090a35050565b634e487b7160e01b600052604160045260246000fd5b600082601f8301126200011d57600080fd5b81516001600160401b03808211156200013a576200013a620000f5565b604051601f8301601f19908116603f01168101908282118183101715620001655762000165620000f5565b816040528381526020925086838588010111156200018257600080fd5b600091505b83821015620001a6578582018301518183018401529082019062000187565b83821115620001b85760008385830101525b9695505050505050565b600080600060608486031215620001d857600080fd5b83516001600160401b0380821115620001f057600080fd5b620001fe878388016200010b565b945060208601519150808211156200021557600080fd5b5062000224868287016200010b565b604086015190935090506001600160a01b03811681146200024457600080fd5b809150509250925092565b600181811c908216806200026457607f821691505b6020821081036200028557634e487b7160e01b600052602260045260246000fd5b50919050565b601f821115620002d957600081815260208120601f850160051c81016020861015620002b45750805b601f850160051c820191505b81811015620002d557828155600101620002c0565b5050505b505050565b81516001600160401b03811115620002fa57620002fa620000f5565b62000312816200030b84546200024f565b846200028b565b602080601f8311600181146200034a5760008415620003315750858301515b600019600386901b1c1916600185901b178555620002d5565b600085815260208120601f198616915b828110156200037b578886015182559484019460019091019084016200035a565b50858210156200039a5787850151600019600388901b60f8161c191681555b5050505050600190811b01905550565b61174b80620003ba6000396000f3fe608060405234801561001057600080fd5b50600436106101425760003560e01c806387a89ee6116100b8578063b35173501161007c578063b35173501461028d578063b88d4fde146102a0578063c87b56dd146102b3578063e8a3d485146102c6578063e985e9c5146102ce578063f2fde38b1461030a57600080fd5b806387a89ee61461023d5780638da5cb5b1461024e5780639137c1a71461025f57806395d89b4114610272578063a22cb4651461027a57600080fd5b806323b872dd1161010a57806323b872dd146101d65780632f54bf6e146101e957806342842e0e146101fc5780636352211e1461020f57806370a0823114610222578063715018a61461023557600080fd5b806301ffc9a71461014757806306fdde031461016f578063081812fc14610184578063095ea7b3146101af57806318160ddd146101c4575b600080fd5b61015a6101553660046111f9565b61031d565b60405190151581526020015b60405180910390f35b61017761032e565b6040516101669190611275565b610197610192366004611288565b6103c0565b6040516001600160a01b039091168152602001610166565b6101c26101bd3660046112b6565b6103e7565b005b6007545b604051908152602001610166565b6101c26101e43660046112e2565b610501565b61015a6101f7366004611323565b610581565b6101c261020a3660046112e2565b6105ad565b61019761021d366004611288565b6105c8565b6101c8610230366004611323565b610628565b6101c26106ae565b6008546001600160a01b0316610197565b6006546001600160a01b0316610197565b6101c261026d366004611323565b6106c2565b61017761071e565b6101c2610288366004611340565b61072d565b61017761029b366004611443565b61073c565b6101c26102ae366004611478565b61081a565b6101776102c1366004611288565b610893565b610177610926565b61015a6102dc3660046114e4565b6001600160a01b03918216600090815260056020908152604080832093909416825291909152205460ff1690565b6101c2610318366004611323565b61099d565b600061032882610a16565b92915050565b60606000805461033d90611512565b80601f016020809104026020016040519081016040528092919081815260200182805461036990611512565b80156103b65780601f1061038b576101008083540402835291602001916103b6565b820191906000526020600020905b81548152906001019060200180831161039957829003601f168201915b5050505050905090565b60006103cb82610a66565b506000908152600460205260409020546001600160a01b031690565b60006103f2826105c8565b9050806001600160a01b0316836001600160a01b0316036104645760405162461bcd60e51b815260206004820152602160248201527f4552433732313a20617070726f76616c20746f2063757272656e74206f776e656044820152603960f91b60648201526084015b60405180910390fd5b336001600160a01b0382161480610480575061048081336102dc565b6104f25760405162461bcd60e51b815260206004820152603e60248201527f4552433732313a20617070726f76652063616c6c6572206973206e6f7420746f60448201527f6b656e206f776e6572206e6f7220617070726f76656420666f7220616c6c0000606482015260840161045b565b6104fc8383610ac5565b505050565b6001600160a01b0383166105325761052c8260076000815461052290611562565b9182905550610b33565b50505050565b61053b82610628565b156104fc5760405162461bcd60e51b815260206004820152601660248201527522bc30b6b836329d31bab93932b73a16b437b63232b960511b604482015260640161045b565b6001600160a01b0381166000908152600960205260408120546105a5576000610328565b600192915050565b6104fc8383836040518060200160405280600081525061081a565b6000818152600260205260408120546001600160a01b0316806103285760405162461bcd60e51b8152602060048201526018602482015277115490cdcc8c4e881a5b9d985b1a59081d1bdad95b88125160421b604482015260640161045b565b60006001600160a01b0382166106925760405162461bcd60e51b815260206004820152602960248201527f4552433732313a2061646472657373207a65726f206973206e6f7420612076616044820152683634b21037bbb732b960b91b606482015260840161045b565b506001600160a01b031660009081526003602052604090205490565b6106b6610b60565b6106c06000610bba565b565b6106ca610b60565b600880546001600160a01b0319166001600160a01b0383169081179091556040519081527fd833c7cea3bce2562e201bf7e85016d0bc1173580c719f63378cc5d0457552b69060200160405180910390a150565b60606001805461033d90611512565b610738338383610c0c565b5050565b60085460408051634d0b849560e11b815290516060926001600160a01b031691639a17092a9160048083019260209291908290030181865afa158015610786573d6000803e3d6000fd5b505050506040513d601f19601f820116820180604052508101906107aa919061157b565b6001600160a01b031663316df61e836040518263ffffffff1660e01b81526004016107d59190611275565b600060405180830381865afa1580156107f2573d6000803e3d6000fd5b505050506040513d6000823e601f3d908101601f191682016040526103289190810190611598565b6108243383610cda565b6108875760405162461bcd60e51b815260206004820152602e60248201527f4552433732313a2063616c6c6572206973206e6f7420746f6b656e206f776e6560448201526d1c881b9bdc88185c1c1c9bdd995960921b606482015260840161045b565b61052c84848484610d58565b60606000806108a184610d8b565b600854604051637833cb0b60e11b81529294509092506001600160a01b03169063f0679616906108d99087908690869060040161160f565b600060405180830381865afa1580156108f6573d6000803e3d6000fd5b505050506040513d6000823e601f3d908101601f1916820160405261091e9190810190611598565b949350505050565b60085460408051631c97e82760e21b815290516060926001600160a01b03169163725fa09c9160048083019260009291908290030181865afa158015610970573d6000803e3d6000fd5b505050506040513d6000823e601f3d908101601f191682016040526109989190810190611598565b905090565b6109a5610b60565b6001600160a01b038116610a0a5760405162461bcd60e51b815260206004820152602660248201527f4f776e61626c653a206e6577206f776e657220697320746865207a65726f206160448201526564647265737360d01b606482015260840161045b565b610a1381610bba565b50565b60006001600160e01b031982166380ac58cd60e01b1480610a4757506001600160e01b03198216635b5e139f60e01b145b8061032857506301ffc9a760e01b6001600160e01b0319831614610328565b6000818152600260205260409020546001600160a01b0316610a135760405162461bcd60e51b8152602060048201526018602482015277115490cdcc8c4e881a5b9d985b1a59081d1bdad95b88125160421b604482015260640161045b565b600081815260046020526040902080546001600160a01b0319166001600160a01b0384169081179091558190610afa826105c8565b6001600160a01b03167f8c5be1e5ebec7d5bd14f71427d1e84f3dd0314c0f7b2291e5b200ac8c7c3b92560405160405180910390a45050565b6000610b3f8383610e04565b506001600160a01b0391909116600090815260096020526040902081905590565b6006546001600160a01b031633146106c05760405162461bcd60e51b815260206004820181905260248201527f4f776e61626c653a2063616c6c6572206973206e6f7420746865206f776e6572604482015260640161045b565b600680546001600160a01b038381166001600160a01b0319831681179093556040519116919082907f8be0079c531659141344cd1fd0a4f28419497f9722a3daafe3b4186f6b6457e090600090a35050565b816001600160a01b0316836001600160a01b031603610c6d5760405162461bcd60e51b815260206004820152601960248201527f4552433732313a20617070726f766520746f2063616c6c657200000000000000604482015260640161045b565b6001600160a01b03838116600081815260056020908152604080832094871680845294825291829020805460ff191686151590811790915591519182527f17307eab39ab6107e8899845ad3d59bd9653f200f220920489ca2b5937696c31910160405180910390a3505050565b600080610ce6836105c8565b9050806001600160a01b0316846001600160a01b03161480610d2d57506001600160a01b0380821660009081526005602090815260408083209388168352929052205460ff165b8061091e5750836001600160a01b0316610d46846103c0565b6001600160a01b031614949350505050565b610d63848484610f46565b610d6f848484846110e2565b61052c5760405162461bcd60e51b815260040161045b90611644565b6060806000604051602001610db79060208082526003908201526203078360ec1b604082015260600190565b60405160208183030381529060405290506000610dd3856105c8565b604080516001600160a01b0390921660208301520160408051601f1981840301815291905291959194509092505050565b6001600160a01b038216610e5a5760405162461bcd60e51b815260206004820181905260248201527f4552433732313a206d696e7420746f20746865207a65726f2061646472657373604482015260640161045b565b6000818152600260205260409020546001600160a01b031615610ebf5760405162461bcd60e51b815260206004820152601c60248201527f4552433732313a20746f6b656e20616c7265616479206d696e74656400000000604482015260640161045b565b6001600160a01b0382166000908152600360205260408120805460019290610ee8908490611696565b909155505060008181526002602052604080822080546001600160a01b0319166001600160a01b03861690811790915590518392907fddf252ad1be2c89b69c2b068fc378daa952ba7f163c4a11628f55a4df523b3ef908290a45050565b826001600160a01b0316610f59826105c8565b6001600160a01b031614610fbd5760405162461bcd60e51b815260206004820152602560248201527f4552433732313a207472616e736665722066726f6d20696e636f72726563742060448201526437bbb732b960d91b606482015260840161045b565b6001600160a01b03821661101f5760405162461bcd60e51b8152602060048201526024808201527f4552433732313a207472616e7366657220746f20746865207a65726f206164646044820152637265737360e01b606482015260840161045b565b61102a600082610ac5565b6001600160a01b03831660009081526003602052604081208054600192906110539084906116ae565b90915550506001600160a01b0382166000908152600360205260408120805460019290611081908490611696565b909155505060008181526002602052604080822080546001600160a01b0319166001600160a01b0386811691821790925591518493918716917fddf252ad1be2c89b69c2b068fc378daa952ba7f163c4a11628f55a4df523b3ef91a4505050565b60006001600160a01b0384163b156111d857604051630a85bd0160e11b81526001600160a01b0385169063150b7a02906111269033908990889088906004016116c5565b6020604051808303816000875af1925050508015611161575060408051601f3d908101601f1916820190925261115e918101906116f8565b60015b6111be573d80801561118f576040519150601f19603f3d011682016040523d82523d6000602084013e611194565b606091505b5080516000036111b65760405162461bcd60e51b815260040161045b90611644565b805181602001fd5b6001600160e01b031916630a85bd0160e11b14905061091e565b506001949350505050565b6001600160e01b031981168114610a1357600080fd5b60006020828403121561120b57600080fd5b8135611216816111e3565b9392505050565b60005b83811015611238578181015183820152602001611220565b8381111561052c5750506000910152565b6000815180845261126181602086016020860161121d565b601f01601f19169290920160200192915050565b6020815260006112166020830184611249565b60006020828403121561129a57600080fd5b5035919050565b6001600160a01b0381168114610a1357600080fd5b600080604083850312156112c957600080fd5b82356112d4816112a1565b946020939093013593505050565b6000806000606084860312156112f757600080fd5b8335611302816112a1565b92506020840135611312816112a1565b929592945050506040919091013590565b60006020828403121561133557600080fd5b8135611216816112a1565b6000806040838503121561135357600080fd5b823561135e816112a1565b91506020830135801515811461137357600080fd5b809150509250929050565b634e487b7160e01b600052604160045260246000fd5b604051601f8201601f1916810167ffffffffffffffff811182821017156113bd576113bd61137e565b604052919050565b600067ffffffffffffffff8211156113df576113df61137e565b50601f01601f191660200190565b600082601f8301126113fe57600080fd5b813561141161140c826113c5565b611394565b81815284602083860101111561142657600080fd5b816020850160208301376000918101602001919091529392505050565b60006020828403121561145557600080fd5b813567ffffffffffffffff81111561146c57600080fd5b61091e848285016113ed565b6000806000806080858703121561148e57600080fd5b8435611499816112a1565b935060208501356114a9816112a1565b925060408501359150606085013567ffffffffffffffff8111156114cc57600080fd5b6114d8878288016113ed565b91505092959194509250565b600080604083850312156114f757600080fd5b8235611502816112a1565b91506020830135611373816112a1565b600181811c9082168061152657607f821691505b60208210810361154657634e487b7160e01b600052602260045260246000fd5b50919050565b634e487b7160e01b600052601160045260246000fd5b6000600182016115745761157461154c565b5060010190565b60006020828403121561158d57600080fd5b8151611216816112a1565b6000602082840312156115aa57600080fd5b815167ffffffffffffffff8111156115c157600080fd5b8201601f810184136115d257600080fd5b80516115e061140c826113c5565b8181528560208385010111156115f557600080fd5b61160682602083016020860161121d565b95945050505050565b8381526060602082015260006116286060830185611249565b828103604084015261163a8185611249565b9695505050505050565b60208082526032908201527f4552433732313a207472616e7366657220746f206e6f6e20455243373231526560408201527131b2b4bb32b91034b6b83632b6b2b73a32b960711b606082015260800190565b600082198211156116a9576116a961154c565b500190565b6000828210156116c0576116c061154c565b500390565b6001600160a01b038581168252841660208201526040810183905260806060820181905260009061163a90830184611249565b60006020828403121561170a57600080fd5b8151611216816111e356fea264697066735822122076a89d87e513c5483a45f13434ea4bb3ce19295d8058587f12b5ebe65802668764736f6c634300080f0033",
  "linkReferences": {},
  "deployedLinkReferences": {}
}